{
  "_format": "hh-sol-artifact-1",
  "contractName": "CaloToken",
  "sourceName": "contracts/CaloToken.sol",
  "abi": [
    {
      "inputs": [
        {
          "internalType": "string",
          "name": "_name",
          "type": "string"
        },
        {
          "internalType": "string",
          "name": "_symbol",
          "type": "string"
        }
      ],
      "stateMutability": "nonpayable",
      "type": "constructor"
    },
    {
      "inputs": [
        {
          "internalType": "address",
          "name": "sender",
          "type": "address"
        },
        {
          "internalType": "uint256",
          "name": "tokenId",
          "type": "uint256"
        },
        {
          "internalType": "address",
          "name": "owner",
          "type": "address"
        }
      ],
      "name": "ERC721IncorrectOwner",
      "type": "error"
    },
    {
      "inputs": [
        {
          "internalType": "address",
          "name": "operator",
          "type": "address"
        },
        {
          "internalType": "uint256",
          "name": "tokenId",
          "type": "uint256"
        }
      ],
      "name": "ERC721InsufficientApproval",
      "type": "error"
    },
    {
      "inputs": [
        {
          "internalType": "address",
          "name": "approver",
          "type": "address"
        }
      ],
      "name": "ERC721InvalidApprover",
      "type": "error"
    },
    {
      "inputs": [
        {
          "internalType": "address",
          "name": "operator",
          "type": "address"
        }
      ],
      "name": "ERC721InvalidOperator",
      "type": "error"
    },
    {
      "inputs": [
        {
          "internalType": "address",
          "name": "owner",
          "type": "address"
        }
      ],
      "name": "ERC721InvalidOwner",
      "type": "error"
    },
    {
      "inputs": [
        {
          "internalType": "address",
          "name": "receiver",
          "type": "address"
        }
      ],
      "name": "ERC721InvalidReceiver",
      "type": "error"
    },
    {
      "inputs": [
        {
          "internalType": "address",
          "name": "sender",
          "type": "address"
        }
      ],
      "name": "ERC721InvalidSender",
      "type": "error"
    },
    {
      "inputs": [
        {
          "internalType": "uint256",
          "name": "tokenId",
          "type": "uint256"
        }
      ],
      "name": "ERC721NonexistentToken",
      "type": "error"
    },
    {
      "anonymous": false,
      "inputs": [
        {
          "indexed": true,
          "internalType": "address",
          "name": "owner",
          "type": "address"
        },
        {
          "indexed": true,
          "internalType": "address",
          "name": "approved",
          "type": "address"
        },
        {
          "indexed": true,
          "internalType": "uint256",
          "name": "tokenId",
          "type": "uint256"
        }
      ],
      "name": "Approval",
      "type": "event"
    },
    {
      "anonymous": false,
      "inputs": [
        {
          "indexed": true,
          "internalType": "address",
          "name": "owner",
          "type": "address"
        },
        {
          "indexed": true,
          "internalType": "address",
          "name": "operator",
          "type": "address"
        },
        {
          "indexed": false,
          "internalType": "bool",
          "name": "approved",
          "type": "bool"
        }
      ],
      "name": "ApprovalForAll",
      "type": "event"
    },
    {
      "anonymous": false,
      "inputs": [
        {
          "indexed": true,
          "internalType": "address",
          "name": "from",
          "type": "address"
        },
        {
          "indexed": true,
          "internalType": "address",
          "name": "to",
          "type": "address"
        },
        {
          "indexed": true,
          "internalType": "uint256",
          "name": "tokenId",
          "type": "uint256"
        }
      ],
      "name": "Transfer",
      "type": "event"
    },
    {
      "inputs": [
        {
          "internalType": "address",
          "name": "to",
          "type": "address"
        },
        {
          "internalType": "uint256",
          "name": "tokenId",
          "type": "uint256"
        }
      ],
      "name": "approve",
      "outputs": [],
      "stateMutability": "nonpayable",
      "type": "function"
    },
    {
      "inputs": [
        {
          "internalType": "address",
          "name": "owner",
          "type": "address"
        }
      ],
      "name": "balanceOf",
      "outputs": [
        {
          "internalType": "uint256",
          "name": "",
          "type": "uint256"
        }
      ],
      "stateMutability": "view",
      "type": "function"
    },
    {
      "inputs": [
        {
          "internalType": "uint256",
          "name": "",
          "type": "uint256"
        }
      ],
      "name": "caloevent",
      "outputs": [
        {
          "internalType": "uint256",
          "name": "id",
          "type": "uint256"
        },
        {
          "internalType": "string",
          "name": "name",
          "type": "string"
        },
        {
          "internalType": "uint256",
          "name": "cost",
          "type": "uint256"
        },
        {
          "internalType": "uint256",
          "name": "tickets",
          "type": "uint256"
        },
        {
          "internalType": "uint256",
          "name": "maxTickets",
          "type": "uint256"
        },
        {
          "internalType": "string",
          "name": "date",
          "type": "string"
        },
        {
          "internalType": "string",
          "name": "time",
          "type": "string"
        },
        {
          "internalType": "string",
          "name": "location",
          "type": "string"
        }
      ],
      "stateMutability": "view",
      "type": "function"
    },
    {
      "inputs": [
        {
          "internalType": "uint256",
          "name": "tokenId",
          "type": "uint256"
        }
      ],
      "name": "getApproved",
      "outputs": [
        {
          "internalType": "address",
          "name": "",
          "type": "address"
        }
      ],
      "stateMutability": "view",
      "type": "function"
    },
    {
      "inputs": [
        {
          "internalType": "uint256",
          "name": "_id",
          "type": "uint256"
        }
      ],
      "name": "getCaloEvent",
      "outputs": [
        {
          "components": [
            {
              "internalType": "uint256",
              "name": "id",
              "type": "uint256"
            },
            {
              "internalType": "string",
              "name": "name",
              "type": "string"
            },
            {
              "internalType": "uint256",
              "name": "cost",
              "type": "uint256"
            },
            {
              "internalType": "uint256",
              "name": "tickets",
              "type": "uint256"
            },
            {
              "internalType": "uint256",
              "name": "maxTickets",
              "type": "uint256"
            },
            {
              "internalType": "string",
              "name": "date",
              "type": "string"
            },
            {
              "internalType": "string",
              "name": "time",
              "type": "string"
            },
            {
              "internalType": "string",
              "name": "location",
              "type": "string"
            }
          ],
          "internalType": "struct CaloToken.CaloEvent",
          "name": "",
          "type": "tuple"
        }
      ],
      "stateMutability": "view",
      "type": "function"
    },
    {
      "inputs": [
        {
          "internalType": "uint256",
          "name": "",
          "type": "uint256"
        },
        {
          "internalType": "address",
          "name": "",
          "type": "address"
        }
      ],
      "name": "hasBought",
      "outputs": [
        {
          "internalType": "bool",
          "name": "",
          "type": "bool"
        }
      ],
      "stateMutability": "view",
      "type": "function"
    },
    {
      "inputs": [
        {
          "internalType": "address",
          "name": "owner",
          "type": "address"
        },
        {
          "internalType": "address",
          "name": "operator",
          "type": "address"
        }
      ],
      "name": "isApprovedForAll",
      "outputs": [
        {
          "internalType": "bool",
          "name": "",
          "type": "bool"
        }
      ],
      "stateMutability": "view",
      "type": "function"
    },
    {
      "inputs": [
        {
          "internalType": "string",
          "name": "_name",
          "type": "string"
        },
        {
          "internalType": "uint256",
          "name": "_cost",
          "type": "uint256"
        },
        {
          "internalType": "uint256",
          "name": "_tickets",
          "type": "uint256"
        },
        {
          "internalType": "uint256",
          "name": "_maxTickets",
          "type": "uint256"
        },
        {
          "internalType": "string",
          "name": "_date",
          "type": "string"
        },
        {
          "internalType": "string",
          "name": "_time",
          "type": "string"
        },
        {
          "internalType": "string",
          "name": "_location",
          "type": "string"
        }
      ],
      "name": "list",
      "outputs": [],
      "stateMutability": "nonpayable",
      "type": "function"
    },
    {
      "inputs": [
        {
          "internalType": "uint256",
          "name": "_id",
          "type": "uint256"
        }
      ],
      "name": "mint",
      "outputs": [],
      "stateMutability": "payable",
      "type": "function"
    },
    {
      "inputs": [],
      "name": "name",
      "outputs": [
        {
          "internalType": "string",
          "name": "",
          "type": "string"
        }
      ],
      "stateMutability": "view",
      "type": "function"
    },
    {
      "inputs": [],
      "name": "owner",
      "outputs": [
        {
          "internalType": "address",
          "name": "",
          "type": "address"
        }
      ],
      "stateMutability": "view",
      "type": "function"
    },
    {
      "inputs": [
        {
          "internalType": "uint256",
          "name": "tokenId",
          "type": "uint256"
        }
      ],
      "name": "ownerOf",
      "outputs": [
        {
          "internalType": "address",
          "name": "",
          "type": "address"
        }
      ],
      "stateMutability": "view",
      "type": "function"
    },
    {
      "inputs": [
        {
          "internalType": "address",
          "name": "from",
          "type": "address"
        },
        {
          "internalType": "address",
          "name": "to",
          "type": "address"
        },
        {
          "internalType": "uint256",
          "name": "tokenId",
          "type": "uint256"
        }
      ],
      "name": "safeTransferFrom",
      "outputs": [],
      "stateMutability": "nonpayable",
      "type": "function"
    },
    {
      "inputs": [
        {
          "internalType": "address",
          "name": "from",
          "type": "address"
        },
        {
          "internalType": "address",
          "name": "to",
          "type": "address"
        },
        {
          "internalType": "uint256",
          "name": "tokenId",
          "type": "uint256"
        },
        {
          "internalType": "bytes",
          "name": "data",
          "type": "bytes"
        }
      ],
      "name": "safeTransferFrom",
      "outputs": [],
      "stateMutability": "nonpayable",
      "type": "function"
    },
    {
      "inputs": [
        {
          "internalType": "address",
          "name": "operator",
          "type": "address"
        },
        {
          "internalType": "bool",
          "name": "approved",
          "type": "bool"
        }
      ],
      "name": "setApprovalForAll",
      "outputs": [],
      "stateMutability": "nonpayable",
      "type": "function"
    },
    {
      "inputs": [
        {
          "internalType": "bytes4",
          "name": "interfaceId",
          "type": "bytes4"
        }
      ],
      "name": "supportsInterface",
      "outputs": [
        {
          "internalType": "bool",
          "name": "",
          "type": "bool"
        }
      ],
      "stateMutability": "view",
      "type": "function"
    },
    {
      "inputs": [],
      "name": "symbol",
      "outputs": [
        {
          "internalType": "string",
          "name": "",
          "type": "string"
        }
      ],
      "stateMutability": "view",
      "type": "function"
    },
    {
      "inputs": [
        {
          "internalType": "uint256",
          "name": "tokenId",
          "type": "uint256"
        }
      ],
      "name": "tokenURI",
      "outputs": [
        {
          "internalType": "string",
          "name": "",
          "type": "string"
        }
      ],
      "stateMutability": "view",
      "type": "function"
    },
    {
      "inputs": [],
      "name": "totalCaloEvent",
      "outputs": [
        {
          "internalType": "uint256",
          "name": "",
          "type": "uint256"
        }
      ],
      "stateMutability": "view",
      "type": "function"
    },
    {
      "inputs": [],
      "name": "totalSupply",
      "outputs": [
        {
          "internalType": "uint256",
          "name": "",
          "type": "uint256"
        }
      ],
      "stateMutability": "view",
      "type": "function"
    },
    {
      "inputs": [
        {
          "internalType": "address",
          "name": "from",
          "type": "address"
        },
        {
          "internalType": "address",
          "name": "to",
          "type": "address"
        },
        {
          "internalType": "uint256",
          "name": "tokenId",
          "type": "uint256"
        }
      ],
      "name": "transferFrom",
      "outputs": [],
      "stateMutability": "nonpayable",
      "type": "function"
    }
  ],
  "bytecode": "0x60806040523480156200001157600080fd5b50604051620035273803806200352783398181016040528101906200003791906200023b565b818181600090816200004a91906200050b565b5080600190816200005c91906200050b565b50505033600660006101000a81548173ffffffffffffffffffffffffffffffffffffffff021916908373ffffffffffffffffffffffffffffffffffffffff1602179055505050620005f2565b6000604051905090565b600080fd5b600080fd5b600080fd5b600080fd5b6000601f19601f8301169050919050565b7f4e487b7100000000000000000000000000000000000000000000000000000000600052604160045260246000fd5b6200011182620000c6565b810181811067ffffffffffffffff82111715620001335762000132620000d7565b5b80604052505050565b600062000148620000a8565b905062000156828262000106565b919050565b600067ffffffffffffffff821115620001795762000178620000d7565b5b6200018482620000c6565b9050602081019050919050565b60005b83811015620001b157808201518184015260208101905062000194565b60008484015250505050565b6000620001d4620001ce846200015b565b6200013c565b905082815260208101848484011115620001f357620001f2620000c1565b5b6200020084828562000191565b509392505050565b600082601f83011262000220576200021f620000bc565b5b815162000232848260208601620001bd565b91505092915050565b60008060408385031215620002555762000254620000b2565b5b600083015167ffffffffffffffff811115620002765762000275620000b7565b5b620002848582860162000208565b925050602083015167ffffffffffffffff811115620002a857620002a7620000b7565b5b620002b68582860162000208565b9150509250929050565b600081519050919050565b7f4e487b7100000000000000000000000000000000000000000000000000000000600052602260045260246000fd5b600060028204905060018216806200031357607f821691505b602082108103620003295762000328620002cb565b5b50919050565b60008190508160005260206000209050919050565b60006020601f8301049050919050565b600082821b905092915050565b600060088302620003937fffffffffffffffffffffffffffffffffffffffffffffffffffffffffffffffff8262000354565b6200039f868362000354565b95508019841693508086168417925050509392505050565b6000819050919050565b6000819050919050565b6000620003ec620003e6620003e084620003b7565b620003c1565b620003b7565b9050919050565b6000819050919050565b6200040883620003cb565b620004206200041782620003f3565b84845462000361565b825550505050565b600090565b6200043762000428565b62000444818484620003fd565b505050565b5b818110156200046c57620004606000826200042d565b6001810190506200044a565b5050565b601f821115620004bb5762000485816200032f565b620004908462000344565b81016020851015620004a0578190505b620004b8620004af8562000344565b83018262000449565b50505b505050565b600082821c905092915050565b6000620004e060001984600802620004c0565b1980831691505092915050565b6000620004fb8383620004cd565b9150826002028217905092915050565b6200051682620002c0565b67ffffffffffffffff811115620005325762000531620000d7565b5b6200053e8254620002fa565b6200054b82828562000470565b600060209050601f8311600181146200058357600084156200056e578287015190505b6200057a8582620004ed565b865550620005ea565b601f19841662000593866200032f565b60005b82811015620005bd5784890151825560018201915060208501945060208101905062000596565b86831015620005dd5784890151620005d9601f891682620004cd565b8355505b6001600288020188555050505b505050505050565b612f2580620006026000396000f3fe60806040526004361061012a5760003560e01c80638010265b116100ab5780639cf0b5f51161006f5780639cf0b5f514610418578063a0712d681461045c578063a22cb46514610478578063b88d4fde146104a1578063c87b56dd146104ca578063e985e9c5146105075761012a565b80638010265b1461031d5780638da5cb5b1461034857806395d89b4114610373578063990356741461039e5780639cb04aef146103db5761012a565b806318160ddd116100f257806318160ddd1461022657806323b872dd1461025157806342842e0e1461027a5780636352211e146102a357806370a08231146102e05761012a565b806301ffc9a71461012f57806306fdde031461016c578063081812fc14610197578063095ea7b3146101d457806310d6cc1c146101fd575b600080fd5b34801561013b57600080fd5b5061015660048036038101906101519190612079565b610544565b60405161016391906120c1565b60405180910390f35b34801561017857600080fd5b50610181610626565b60405161018e919061216c565b60405180910390f35b3480156101a357600080fd5b506101be60048036038101906101b991906121c4565b6106b8565b6040516101cb9190612232565b60405180910390f35b3480156101e057600080fd5b506101fb60048036038101906101f69190612279565b6106d4565b005b34801561020957600080fd5b50610224600480360381019061021f91906123ee565b6106ea565b005b34801561023257600080fd5b5061023b610839565b604051610248919061250f565b60405180910390f35b34801561025d57600080fd5b506102786004803603810190610273919061252a565b61083f565b005b34801561028657600080fd5b506102a1600480360381019061029c919061252a565b610941565b005b3480156102af57600080fd5b506102ca60048036038101906102c591906121c4565b610961565b6040516102d79190612232565b60405180910390f35b3480156102ec57600080fd5b506103076004803603810190610302919061257d565b610973565b604051610314919061250f565b60405180910390f35b34801561032957600080fd5b50610332610a2d565b60405161033f919061250f565b60405180910390f35b34801561035457600080fd5b5061035d610a33565b60405161036a9190612232565b60405180910390f35b34801561037f57600080fd5b50610388610a59565b604051610395919061216c565b60405180910390f35b3480156103aa57600080fd5b506103c560048036038101906103c091906121c4565b610aeb565b6040516103d291906126c8565b60405180910390f35b3480156103e757600080fd5b5061040260048036038101906103fd91906126ea565b610d89565b60405161040f91906120c1565b60405180910390f35b34801561042457600080fd5b5061043f600480360381019061043a91906121c4565b610db8565b60405161045398979695949392919061272a565b60405180910390f35b610476600480360381019061047191906121c4565b611020565b005b34801561048457600080fd5b5061049f600480360381019061049a91906127f0565b61111d565b005b3480156104ad57600080fd5b506104c860048036038101906104c391906128d1565b611133565b005b3480156104d657600080fd5b506104f160048036038101906104ec91906121c4565b611150565b6040516104fe919061216c565b60405180910390f35b34801561051357600080fd5b5061052e60048036038101906105299190612954565b6111b9565b60405161053b91906120c1565b60405180910390f35b60007f80ac58cd000000000000000000000000000000000000000000000000000000007bffffffffffffffffffffffffffffffffffffffffffffffffffffffff1916827bffffffffffffffffffffffffffffffffffffffffffffffffffffffff1916148061060f57507f5b5e139f000000000000000000000000000000000000000000000000000000007bffffffffffffffffffffffffffffffffffffffffffffffffffffffff1916827bffffffffffffffffffffffffffffffffffffffffffffffffffffffff1916145b8061061f575061061e8261124d565b5b9050919050565b606060008054610635906129c3565b80601f0160208091040260200160405190810160405280929190818152602001828054610661906129c3565b80156106ae5780601f10610683576101008083540402835291602001916106ae565b820191906000526020600020905b81548152906001019060200180831161069157829003601f168201915b5050505050905090565b60006106c3826112b7565b506106cd8261133f565b9050919050565b6106e682826106e161137c565b611384565b5050565b600660009054906101000a900473ffffffffffffffffffffffffffffffffffffffff1673ffffffffffffffffffffffffffffffffffffffff163373ffffffffffffffffffffffffffffffffffffffff161461074457600080fd5b6007600081548092919061075790612a23565b91905055506040518061010001604052806007548152602001888152602001878152602001868152602001858152602001848152602001838152602001828152506009600060075481526020019081526020016000206000820151816000015560208201518160010190816107cc9190612c17565b5060408201518160020155606082015181600301556080820151816004015560a08201518160050190816108009190612c17565b5060c08201518160060190816108169190612c17565b5060e082015181600701908161082c9190612c17565b5090505050505050505050565b60085481565b600073ffffffffffffffffffffffffffffffffffffffff168273ffffffffffffffffffffffffffffffffffffffff16036108b15760006040517f64a0ae920000000000000000000000000000000000000000000000000000000081526004016108a89190612232565b60405180910390fd5b60006108c583836108c061137c565b611396565b90508373ffffffffffffffffffffffffffffffffffffffff168173ffffffffffffffffffffffffffffffffffffffff161461093b578382826040517f64283d7b00000000000000000000000000000000000000000000000000000000815260040161093293929190612ce9565b60405180910390fd5b50505050565b61095c83838360405180602001604052806000815250611133565b505050565b600061096c826112b7565b9050919050565b60008073ffffffffffffffffffffffffffffffffffffffff168273ffffffffffffffffffffffffffffffffffffffff16036109e65760006040517f89c62b640000000000000000000000000000000000000000000000000000000081526004016109dd9190612232565b60405180910390fd5b600360008373ffffffffffffffffffffffffffffffffffffffff1673ffffffffffffffffffffffffffffffffffffffff168152602001908152602001600020549050919050565b60075481565b600660009054906101000a900473ffffffffffffffffffffffffffffffffffffffff1681565b606060018054610a68906129c3565b80601f0160208091040260200160405190810160405280929190818152602001828054610a94906129c3565b8015610ae15780601f10610ab657610100808354040283529160200191610ae1565b820191906000526020600020905b815481529060010190602001808311610ac457829003601f168201915b5050505050905090565b610af3611fc8565b600960008381526020019081526020016000206040518061010001604052908160008201548152602001600182018054610b2c906129c3565b80601f0160208091040260200160405190810160405280929190818152602001828054610b58906129c3565b8015610ba55780601f10610b7a57610100808354040283529160200191610ba5565b820191906000526020600020905b815481529060010190602001808311610b8857829003601f168201915b50505050508152602001600282015481526020016003820154815260200160048201548152602001600582018054610bdc906129c3565b80601f0160208091040260200160405190810160405280929190818152602001828054610c08906129c3565b8015610c555780601f10610c2a57610100808354040283529160200191610c55565b820191906000526020600020905b815481529060010190602001808311610c3857829003601f168201915b50505050508152602001600682018054610c6e906129c3565b80601f0160208091040260200160405190810160405280929190818152602001828054610c9a906129c3565b8015610ce75780601f10610cbc57610100808354040283529160200191610ce7565b820191906000526020600020905b815481529060010190602001808311610cca57829003601f168201915b50505050508152602001600782018054610d00906129c3565b80601f0160208091040260200160405190810160405280929190818152602001828054610d2c906129c3565b8015610d795780601f10610d4e57610100808354040283529160200191610d79565b820191906000526020600020905b815481529060010190602001808311610d5c57829003601f168201915b5050505050815250509050919050565b600a6020528160005260406000206020528060005260406000206000915091509054906101000a900460ff1681565b6009602052806000526040600020600091509050806000015490806001018054610de1906129c3565b80601f0160208091040260200160405190810160405280929190818152602001828054610e0d906129c3565b8015610e5a5780601f10610e2f57610100808354040283529160200191610e5a565b820191906000526020600020905b815481529060010190602001808311610e3d57829003601f168201915b505050505090806002015490806003015490806004015490806005018054610e81906129c3565b80601f0160208091040260200160405190810160405280929190818152602001828054610ead906129c3565b8015610efa5780601f10610ecf57610100808354040283529160200191610efa565b820191906000526020600020905b815481529060010190602001808311610edd57829003601f168201915b505050505090806006018054610f0f906129c3565b80601f0160208091040260200160405190810160405280929190818152602001828054610f3b906129c3565b8015610f885780601f10610f5d57610100808354040283529160200191610f88565b820191906000526020600020905b815481529060010190602001808311610f6b57829003601f168201915b505050505090806007018054610f9d906129c3565b80601f0160208091040260200160405190810160405280929190818152602001828054610fc9906129c3565b80156110165780601f10610feb57610100808354040283529160200191611016565b820191906000526020600020905b815481529060010190602001808311610ff957829003601f168201915b5050505050905088565b6000810361102d57600080fd5b60075481111561103c57600080fd5b600960008281526020019081526020016000206002015434101561105f57600080fd5b60016009600083815260200190815260200160002060030160008282546110869190612d20565b925050819055506001600a600083815260200190815260200160002060003373ffffffffffffffffffffffffffffffffffffffff1673ffffffffffffffffffffffffffffffffffffffff16815260200190815260200160002060006101000a81548160ff0219169083151502179055506008600081548092919061110990612a23565b919050555061111a336008546115b0565b50565b61112f61112861137c565b83836115ce565b5050565b61113e84848461083f565b61114a8484848461173d565b50505050565b606061115b826112b7565b5060006111666118f4565b9050600081511161118657604051806020016040528060008152506111b1565b806111908461190b565b6040516020016111a1929190612d90565b6040516020818303038152906040525b915050919050565b6000600560008473ffffffffffffffffffffffffffffffffffffffff1673ffffffffffffffffffffffffffffffffffffffff16815260200190815260200160002060008373ffffffffffffffffffffffffffffffffffffffff1673ffffffffffffffffffffffffffffffffffffffff16815260200190815260200160002060009054906101000a900460ff16905092915050565b60007f01ffc9a7000000000000000000000000000000000000000000000000000000007bffffffffffffffffffffffffffffffffffffffffffffffffffffffff1916827bffffffffffffffffffffffffffffffffffffffffffffffffffffffff1916149050919050565b6000806112c3836119d9565b9050600073ffffffffffffffffffffffffffffffffffffffff168173ffffffffffffffffffffffffffffffffffffffff160361133657826040517f7e27328900000000000000000000000000000000000000000000000000000000815260040161132d919061250f565b60405180910390fd5b80915050919050565b60006004600083815260200190815260200160002060009054906101000a900473ffffffffffffffffffffffffffffffffffffffff169050919050565b600033905090565b6113918383836001611a16565b505050565b6000806113a2846119d9565b9050600073ffffffffffffffffffffffffffffffffffffffff168373ffffffffffffffffffffffffffffffffffffffff16146113e4576113e3818486611bdb565b5b600073ffffffffffffffffffffffffffffffffffffffff168173ffffffffffffffffffffffffffffffffffffffff161461147557611426600085600080611a16565b6001600360008373ffffffffffffffffffffffffffffffffffffffff1673ffffffffffffffffffffffffffffffffffffffff168152602001908152602001600020600082825403925050819055505b600073ffffffffffffffffffffffffffffffffffffffff168573ffffffffffffffffffffffffffffffffffffffff16146114f8576001600360008773ffffffffffffffffffffffffffffffffffffffff1673ffffffffffffffffffffffffffffffffffffffff168152602001908152602001600020600082825401925050819055505b846002600086815260200190815260200160002060006101000a81548173ffffffffffffffffffffffffffffffffffffffff021916908373ffffffffffffffffffffffffffffffffffffffff160217905550838573ffffffffffffffffffffffffffffffffffffffff168273ffffffffffffffffffffffffffffffffffffffff167fddf252ad1be2c89b69c2b068fc378daa952ba7f163c4a11628f55a4df523b3ef60405160405180910390a4809150509392505050565b6115ca828260405180602001604052806000815250611c9f565b5050565b600073ffffffffffffffffffffffffffffffffffffffff168273ffffffffffffffffffffffffffffffffffffffff160361163f57816040517f5b08ba180000000000000000000000000000000000000000000000000000000081526004016116369190612232565b60405180910390fd5b80600560008573ffffffffffffffffffffffffffffffffffffffff1673ffffffffffffffffffffffffffffffffffffffff16815260200190815260200160002060008473ffffffffffffffffffffffffffffffffffffffff1673ffffffffffffffffffffffffffffffffffffffff16815260200190815260200160002060006101000a81548160ff0219169083151502179055508173ffffffffffffffffffffffffffffffffffffffff168373ffffffffffffffffffffffffffffffffffffffff167f17307eab39ab6107e8899845ad3d59bd9653f200f220920489ca2b5937696c318360405161173091906120c1565b60405180910390a3505050565b60008373ffffffffffffffffffffffffffffffffffffffff163b11156118ee578273ffffffffffffffffffffffffffffffffffffffff1663150b7a0261178161137c565b8685856040518563ffffffff1660e01b81526004016117a39493929190612e09565b6020604051808303816000875af19250505080156117df57506040513d601f19601f820116820180604052508101906117dc9190612e6a565b60015b611863573d806000811461180f576040519150601f19603f3d011682016040523d82523d6000602084013e611814565b606091505b50600081510361185b57836040517f64a0ae920000000000000000000000000000000000000000000000000000000081526004016118529190612232565b60405180910390fd5b805181602001fd5b63150b7a0260e01b7bffffffffffffffffffffffffffffffffffffffffffffffffffffffff1916817bffffffffffffffffffffffffffffffffffffffffffffffffffffffff1916146118ec57836040517f64a0ae920000000000000000000000000000000000000000000000000000000081526004016118e39190612232565b60405180910390fd5b505b50505050565b606060405180602001604052806000815250905090565b60606000600161191a84611cbb565b01905060008167ffffffffffffffff811115611939576119386122c3565b5b6040519080825280601f01601f19166020018201604052801561196b5781602001600182028036833780820191505090505b509050600082602001820190505b6001156119ce578080600190039150507f3031323334353637383961626364656600000000000000000000000000000000600a86061a8153600a85816119c2576119c1612e97565b5b04945060008503611979575b819350505050919050565b60006002600083815260200190815260200160002060009054906101000a900473ffffffffffffffffffffffffffffffffffffffff169050919050565b8080611a4f5750600073ffffffffffffffffffffffffffffffffffffffff168273ffffffffffffffffffffffffffffffffffffffff1614155b15611b83576000611a5f846112b7565b9050600073ffffffffffffffffffffffffffffffffffffffff168373ffffffffffffffffffffffffffffffffffffffff1614158015611aca57508273ffffffffffffffffffffffffffffffffffffffff168173ffffffffffffffffffffffffffffffffffffffff1614155b8015611add5750611adb81846111b9565b155b15611b1f57826040517fa9fbf51f000000000000000000000000000000000000000000000000000000008152600401611b169190612232565b60405180910390fd5b8115611b8157838573ffffffffffffffffffffffffffffffffffffffff168273ffffffffffffffffffffffffffffffffffffffff167f8c5be1e5ebec7d5bd14f71427d1e84f3dd0314c0f7b2291e5b200ac8c7c3b92560405160405180910390a45b505b836004600085815260200190815260200160002060006101000a81548173ffffffffffffffffffffffffffffffffffffffff021916908373ffffffffffffffffffffffffffffffffffffffff16021790555050505050565b611be6838383611e0e565b611c9a57600073ffffffffffffffffffffffffffffffffffffffff168373ffffffffffffffffffffffffffffffffffffffff1603611c5b57806040517f7e273289000000000000000000000000000000000000000000000000000000008152600401611c52919061250f565b60405180910390fd5b81816040517f177e802f000000000000000000000000000000000000000000000000000000008152600401611c91929190612ec6565b60405180910390fd5b505050565b611ca98383611ecf565b611cb6600084848461173d565b505050565b600080600090507a184f03e93ff9f4daa797ed6e38ed64bf6a1f0100000000000000008310611d19577a184f03e93ff9f4daa797ed6e38ed64bf6a1f0100000000000000008381611d0f57611d0e612e97565b5b0492506040810190505b6d04ee2d6d415b85acef81000000008310611d56576d04ee2d6d415b85acef81000000008381611d4c57611d4b612e97565b5b0492506020810190505b662386f26fc100008310611d8557662386f26fc100008381611d7b57611d7a612e97565b5b0492506010810190505b6305f5e1008310611dae576305f5e1008381611da457611da3612e97565b5b0492506008810190505b6127108310611dd3576127108381611dc957611dc8612e97565b5b0492506004810190505b60648310611df65760648381611dec57611deb612e97565b5b0492506002810190505b600a8310611e05576001810190505b80915050919050565b60008073ffffffffffffffffffffffffffffffffffffffff168373ffffffffffffffffffffffffffffffffffffffff1614158015611ec657508273ffffffffffffffffffffffffffffffffffffffff168473ffffffffffffffffffffffffffffffffffffffff161480611e875750611e8684846111b9565b5b80611ec557508273ffffffffffffffffffffffffffffffffffffffff16611ead8361133f565b73ffffffffffffffffffffffffffffffffffffffff16145b5b90509392505050565b600073ffffffffffffffffffffffffffffffffffffffff168273ffffffffffffffffffffffffffffffffffffffff1603611f415760006040517f64a0ae92000000000000000000000000000000000000000000000000000000008152600401611f389190612232565b60405180910390fd5b6000611f4f83836000611396565b9050600073ffffffffffffffffffffffffffffffffffffffff168173ffffffffffffffffffffffffffffffffffffffff1614611fc35760006040517f73c6ac6e000000000000000000000000000000000000000000000000000000008152600401611fba9190612232565b60405180910390fd5b505050565b60405180610100016040528060008152602001606081526020016000815260200160008152602001600081526020016060815260200160608152602001606081525090565b6000604051905090565b600080fd5b600080fd5b60007fffffffff0000000000000000000000000000000000000000000000000000000082169050919050565b61205681612021565b811461206157600080fd5b50565b6000813590506120738161204d565b92915050565b60006020828403121561208f5761208e612017565b5b600061209d84828501612064565b91505092915050565b60008115159050919050565b6120bb816120a6565b82525050565b60006020820190506120d660008301846120b2565b92915050565b600081519050919050565b600082825260208201905092915050565b60005b838110156121165780820151818401526020810190506120fb565b60008484015250505050565b6000601f19601f8301169050919050565b600061213e826120dc565b61214881856120e7565b93506121588185602086016120f8565b61216181612122565b840191505092915050565b600060208201905081810360008301526121868184612133565b905092915050565b6000819050919050565b6121a18161218e565b81146121ac57600080fd5b50565b6000813590506121be81612198565b92915050565b6000602082840312156121da576121d9612017565b5b60006121e8848285016121af565b91505092915050565b600073ffffffffffffffffffffffffffffffffffffffff82169050919050565b600061221c826121f1565b9050919050565b61222c81612211565b82525050565b60006020820190506122476000830184612223565b92915050565b61225681612211565b811461226157600080fd5b50565b6000813590506122738161224d565b92915050565b600080604083850312156122905761228f612017565b5b600061229e85828601612264565b92505060206122af858286016121af565b9150509250929050565b600080fd5b600080fd5b7f4e487b7100000000000000000000000000000000000000000000000000000000600052604160045260246000fd5b6122fb82612122565b810181811067ffffffffffffffff8211171561231a576123196122c3565b5b80604052505050565b600061232d61200d565b905061233982826122f2565b919050565b600067ffffffffffffffff821115612359576123586122c3565b5b61236282612122565b9050602081019050919050565b82818337600083830152505050565b600061239161238c8461233e565b612323565b9050828152602081018484840111156123ad576123ac6122be565b5b6123b884828561236f565b509392505050565b600082601f8301126123d5576123d46122b9565b5b81356123e584826020860161237e565b91505092915050565b600080600080600080600060e0888a03121561240d5761240c612017565b5b600088013567ffffffffffffffff81111561242b5761242a61201c565b5b6124378a828b016123c0565b97505060206124488a828b016121af565b96505060406124598a828b016121af565b955050606061246a8a828b016121af565b945050608088013567ffffffffffffffff81111561248b5761248a61201c565b5b6124978a828b016123c0565b93505060a088013567ffffffffffffffff8111156124b8576124b761201c565b5b6124c48a828b016123c0565b92505060c088013567ffffffffffffffff8111156124e5576124e461201c565b5b6124f18a828b016123c0565b91505092959891949750929550565b6125098161218e565b82525050565b60006020820190506125246000830184612500565b92915050565b60008060006060848603121561254357612542612017565b5b600061255186828701612264565b935050602061256286828701612264565b9250506040612573868287016121af565b9150509250925092565b60006020828403121561259357612592612017565b5b60006125a184828501612264565b91505092915050565b6125b38161218e565b82525050565b600082825260208201905092915050565b60006125d5826120dc565b6125df81856125b9565b93506125ef8185602086016120f8565b6125f881612122565b840191505092915050565b60006101008301600083015161261c60008601826125aa565b506020830151848203602086015261263482826125ca565b915050604083015161264960408601826125aa565b50606083015161265c60608601826125aa565b50608083015161266f60808601826125aa565b5060a083015184820360a086015261268782826125ca565b91505060c083015184820360c08601526126a182826125ca565b91505060e083015184820360e08601526126bb82826125ca565b9150508091505092915050565b600060208201905081810360008301526126e28184612603565b905092915050565b6000806040838503121561270157612700612017565b5b600061270f858286016121af565b925050602061272085828601612264565b9150509250929050565b600061010082019050612740600083018b612500565b8181036020830152612752818a612133565b90506127616040830189612500565b61276e6060830188612500565b61277b6080830187612500565b81810360a083015261278d8186612133565b905081810360c08301526127a18185612133565b905081810360e08301526127b58184612133565b90509998505050505050505050565b6127cd816120a6565b81146127d857600080fd5b50565b6000813590506127ea816127c4565b92915050565b6000806040838503121561280757612806612017565b5b600061281585828601612264565b9250506020612826858286016127db565b9150509250929050565b600067ffffffffffffffff82111561284b5761284a6122c3565b5b61285482612122565b9050602081019050919050565b600061287461286f84612830565b612323565b9050828152602081018484840111156128905761288f6122be565b5b61289b84828561236f565b509392505050565b600082601f8301126128b8576128b76122b9565b5b81356128c8848260208601612861565b91505092915050565b600080600080608085870312156128eb576128ea612017565b5b60006128f987828801612264565b945050602061290a87828801612264565b935050604061291b878288016121af565b925050606085013567ffffffffffffffff81111561293c5761293b61201c565b5b612948878288016128a3565b91505092959194509250565b6000806040838503121561296b5761296a612017565b5b600061297985828601612264565b925050602061298a85828601612264565b9150509250929050565b7f4e487b7100000000000000000000000000000000000000000000000000000000600052602260045260246000fd5b600060028204905060018216806129db57607f821691505b6020821081036129ee576129ed612994565b5b50919050565b7f4e487b7100000000000000000000000000000000000000000000000000000000600052601160045260246000fd5b6000612a2e8261218e565b91507fffffffffffffffffffffffffffffffffffffffffffffffffffffffffffffffff8203612a6057612a5f6129f4565b5b600182019050919050565b60008190508160005260206000209050919050565b60006020601f8301049050919050565b600082821b905092915050565b600060088302612acd7fffffffffffffffffffffffffffffffffffffffffffffffffffffffffffffffff82612a90565b612ad78683612a90565b95508019841693508086168417925050509392505050565b6000819050919050565b6000612b14612b0f612b0a8461218e565b612aef565b61218e565b9050919050565b6000819050919050565b612b2e83612af9565b612b42612b3a82612b1b565b848454612a9d565b825550505050565b600090565b612b57612b4a565b612b62818484612b25565b505050565b5b81811015612b8657612b7b600082612b4f565b600181019050612b68565b5050565b601f821115612bcb57612b9c81612a6b565b612ba584612a80565b81016020851015612bb4578190505b612bc8612bc085612a80565b830182612b67565b50505b505050565b600082821c905092915050565b6000612bee60001984600802612bd0565b1980831691505092915050565b6000612c078383612bdd565b9150826002028217905092915050565b612c20826120dc565b67ffffffffffffffff811115612c3957612c386122c3565b5b612c4382546129c3565b612c4e828285612b8a565b600060209050601f831160018114612c815760008415612c6f578287015190505b612c798582612bfb565b865550612ce1565b601f198416612c8f86612a6b565b60005b82811015612cb757848901518255600182019150602085019450602081019050612c92565b86831015612cd45784890151612cd0601f891682612bdd565b8355505b6001600288020188555050505b505050505050565b6000606082019050612cfe6000830186612223565b612d0b6020830185612500565b612d186040830184612223565b949350505050565b6000612d2b8261218e565b9150612d368361218e565b9250828203905081811115612d4e57612d4d6129f4565b5b92915050565b600081905092915050565b6000612d6a826120dc565b612d748185612d54565b9350612d848185602086016120f8565b80840191505092915050565b6000612d9c8285612d5f565b9150612da88284612d5f565b91508190509392505050565b600081519050919050565b600082825260208201905092915050565b6000612ddb82612db4565b612de58185612dbf565b9350612df58185602086016120f8565b612dfe81612122565b840191505092915050565b6000608082019050612e1e6000830187612223565b612e2b6020830186612223565b612e386040830185612500565b8181036060830152612e4a8184612dd0565b905095945050505050565b600081519050612e648161204d565b92915050565b600060208284031215612e8057612e7f612017565b5b6000612e8e84828501612e55565b91505092915050565b7f4e487b7100000000000000000000000000000000000000000000000000000000600052601260045260246000fd5b6000604082019050612edb6000830185612223565b612ee86020830184612500565b939250505056fea26469706673582212203e6127f9705a7596c1b8fabd36c3bbee22e5e5a19ce55cc059869194c9757f3a64736f6c63430008140033",
  "linkReferences": {},
  "deployedLinkReferences": {}
}