{
  "_format": "hh-sol-artifact-1",
  "contractName": "CaloToken",
  "sourceName": "contracts/CaloToken.sol",
  "abi": [
    {
      "inputs": [
        {
          "internalType": "string",
          "name": "_name",
          "type": "string"
        },
        {
          "internalType": "string",
          "name": "_symbol",
          "type": "string"
        }
      ],
      "stateMutability": "nonpayable",
      "type": "constructor"
    },
    {
      "inputs": [
        {
          "internalType": "address",
          "name": "sender",
          "type": "address"
        },
        {
          "internalType": "uint256",
          "name": "tokenId",
          "type": "uint256"
        },
        {
          "internalType": "address",
          "name": "owner",
          "type": "address"
        }
      ],
      "name": "ERC721IncorrectOwner",
      "type": "error"
    },
    {
      "inputs": [
        {
          "internalType": "address",
          "name": "operator",
          "type": "address"
        },
        {
          "internalType": "uint256",
          "name": "tokenId",
          "type": "uint256"
        }
      ],
      "name": "ERC721InsufficientApproval",
      "type": "error"
    },
    {
      "inputs": [
        {
          "internalType": "address",
          "name": "approver",
          "type": "address"
        }
      ],
      "name": "ERC721InvalidApprover",
      "type": "error"
    },
    {
      "inputs": [
        {
          "internalType": "address",
          "name": "operator",
          "type": "address"
        }
      ],
      "name": "ERC721InvalidOperator",
      "type": "error"
    },
    {
      "inputs": [
        {
          "internalType": "address",
          "name": "owner",
          "type": "address"
        }
      ],
      "name": "ERC721InvalidOwner",
      "type": "error"
    },
    {
      "inputs": [
        {
          "internalType": "address",
          "name": "receiver",
          "type": "address"
        }
      ],
      "name": "ERC721InvalidReceiver",
      "type": "error"
    },
    {
      "inputs": [
        {
          "internalType": "address",
          "name": "sender",
          "type": "address"
        }
      ],
      "name": "ERC721InvalidSender",
      "type": "error"
    },
    {
      "inputs": [
        {
          "internalType": "uint256",
          "name": "tokenId",
          "type": "uint256"
        }
      ],
      "name": "ERC721NonexistentToken",
      "type": "error"
    },
    {
      "anonymous": false,
      "inputs": [
        {
          "indexed": true,
          "internalType": "address",
          "name": "owner",
          "type": "address"
        },
        {
          "indexed": true,
          "internalType": "address",
          "name": "approved",
          "type": "address"
        },
        {
          "indexed": true,
          "internalType": "uint256",
          "name": "tokenId",
          "type": "uint256"
        }
      ],
      "name": "Approval",
      "type": "event"
    },
    {
      "anonymous": false,
      "inputs": [
        {
          "indexed": true,
          "internalType": "address",
          "name": "owner",
          "type": "address"
        },
        {
          "indexed": true,
          "internalType": "address",
          "name": "operator",
          "type": "address"
        },
        {
          "indexed": false,
          "internalType": "bool",
          "name": "approved",
          "type": "bool"
        }
      ],
      "name": "ApprovalForAll",
      "type": "event"
    },
    {
      "anonymous": false,
      "inputs": [
        {
          "indexed": true,
          "internalType": "address",
          "name": "from",
          "type": "address"
        },
        {
          "indexed": true,
          "internalType": "address",
          "name": "to",
          "type": "address"
        },
        {
          "indexed": true,
          "internalType": "uint256",
          "name": "tokenId",
          "type": "uint256"
        }
      ],
      "name": "Transfer",
      "type": "event"
    },
    {
      "inputs": [
        {
          "internalType": "address",
          "name": "to",
          "type": "address"
        },
        {
          "internalType": "uint256",
          "name": "tokenId",
          "type": "uint256"
        }
      ],
      "name": "approve",
      "outputs": [],
      "stateMutability": "nonpayable",
      "type": "function"
    },
    {
      "inputs": [
        {
          "internalType": "address",
          "name": "owner",
          "type": "address"
        }
      ],
      "name": "balanceOf",
      "outputs": [
        {
          "internalType": "uint256",
          "name": "",
          "type": "uint256"
        }
      ],
      "stateMutability": "view",
      "type": "function"
    },
    {
      "inputs": [
        {
          "internalType": "uint256",
          "name": "tokenId",
          "type": "uint256"
        }
      ],
      "name": "getApproved",
      "outputs": [
        {
          "internalType": "address",
          "name": "",
          "type": "address"
        }
      ],
      "stateMutability": "view",
      "type": "function"
    },
    {
      "inputs": [
        {
          "internalType": "address",
          "name": "owner",
          "type": "address"
        },
        {
          "internalType": "address",
          "name": "operator",
          "type": "address"
        }
      ],
      "name": "isApprovedForAll",
      "outputs": [
        {
          "internalType": "bool",
          "name": "",
          "type": "bool"
        }
      ],
      "stateMutability": "view",
      "type": "function"
    },
    {
      "inputs": [],
      "name": "name",
      "outputs": [
        {
          "internalType": "string",
          "name": "",
          "type": "string"
        }
      ],
      "stateMutability": "view",
      "type": "function"
    },
    {
      "inputs": [],
      "name": "owner",
      "outputs": [
        {
          "internalType": "address",
          "name": "",
          "type": "address"
        }
      ],
      "stateMutability": "view",
      "type": "function"
    },
    {
      "inputs": [
        {
          "internalType": "uint256",
          "name": "tokenId",
          "type": "uint256"
        }
      ],
      "name": "ownerOf",
      "outputs": [
        {
          "internalType": "address",
          "name": "",
          "type": "address"
        }
      ],
      "stateMutability": "view",
      "type": "function"
    },
    {
      "inputs": [
        {
          "internalType": "address",
          "name": "from",
          "type": "address"
        },
        {
          "internalType": "address",
          "name": "to",
          "type": "address"
        },
        {
          "internalType": "uint256",
          "name": "tokenId",
          "type": "uint256"
        }
      ],
      "name": "safeTransferFrom",
      "outputs": [],
      "stateMutability": "nonpayable",
      "type": "function"
    },
    {
      "inputs": [
        {
          "internalType": "address",
          "name": "from",
          "type": "address"
        },
        {
          "internalType": "address",
          "name": "to",
          "type": "address"
        },
        {
          "internalType": "uint256",
          "name": "tokenId",
          "type": "uint256"
        },
        {
          "internalType": "bytes",
          "name": "data",
          "type": "bytes"
        }
      ],
      "name": "safeTransferFrom",
      "outputs": [],
      "stateMutability": "nonpayable",
      "type": "function"
    },
    {
      "inputs": [
        {
          "internalType": "address",
          "name": "operator",
          "type": "address"
        },
        {
          "internalType": "bool",
          "name": "approved",
          "type": "bool"
        }
      ],
      "name": "setApprovalForAll",
      "outputs": [],
      "stateMutability": "nonpayable",
      "type": "function"
    },
    {
      "inputs": [
        {
          "internalType": "bytes4",
          "name": "interfaceId",
          "type": "bytes4"
        }
      ],
      "name": "supportsInterface",
      "outputs": [
        {
          "internalType": "bool",
          "name": "",
          "type": "bool"
        }
      ],
      "stateMutability": "view",
      "type": "function"
    },
    {
      "inputs": [],
      "name": "symbol",
      "outputs": [
        {
          "internalType": "string",
          "name": "",
          "type": "string"
        }
      ],
      "stateMutability": "view",
      "type": "function"
    },
    {
      "inputs": [
        {
          "internalType": "uint256",
          "name": "tokenId",
          "type": "uint256"
        }
      ],
      "name": "tokenURI",
      "outputs": [
        {
          "internalType": "string",
          "name": "",
          "type": "string"
        }
      ],
      "stateMutability": "view",
      "type": "function"
    },
    {
      "inputs": [
        {
          "internalType": "address",
          "name": "from",
          "type": "address"
        },
        {
          "internalType": "address",
          "name": "to",
          "type": "address"
        },
        {
          "internalType": "uint256",
          "name": "tokenId",
          "type": "uint256"
        }
      ],
      "name": "transferFrom",
      "outputs": [],
      "stateMutability": "nonpayable",
      "type": "function"
    }
  ],
  "bytecode": "0x60806040523480156200001157600080fd5b50604051620022dd380380620022dd83398181016040528101906200003791906200023b565b818181600090816200004a91906200050b565b5080600190816200005c91906200050b565b50505033600660006101000a81548173ffffffffffffffffffffffffffffffffffffffff021916908373ffffffffffffffffffffffffffffffffffffffff1602179055505050620005f2565b6000604051905090565b600080fd5b600080fd5b600080fd5b600080fd5b6000601f19601f8301169050919050565b7f4e487b7100000000000000000000000000000000000000000000000000000000600052604160045260246000fd5b6200011182620000c6565b810181811067ffffffffffffffff82111715620001335762000132620000d7565b5b80604052505050565b600062000148620000a8565b905062000156828262000106565b919050565b600067ffffffffffffffff821115620001795762000178620000d7565b5b6200018482620000c6565b9050602081019050919050565b60005b83811015620001b157808201518184015260208101905062000194565b60008484015250505050565b6000620001d4620001ce846200015b565b6200013c565b905082815260208101848484011115620001f357620001f2620000c1565b5b6200020084828562000191565b509392505050565b600082601f83011262000220576200021f620000bc565b5b815162000232848260208601620001bd565b91505092915050565b60008060408385031215620002555762000254620000b2565b5b600083015167ffffffffffffffff811115620002765762000275620000b7565b5b620002848582860162000208565b925050602083015167ffffffffffffffff811115620002a857620002a7620000b7565b5b620002b68582860162000208565b9150509250929050565b600081519050919050565b7f4e487b7100000000000000000000000000000000000000000000000000000000600052602260045260246000fd5b600060028204905060018216806200031357607f821691505b602082108103620003295762000328620002cb565b5b50919050565b60008190508160005260206000209050919050565b60006020601f8301049050919050565b600082821b905092915050565b600060088302620003937fffffffffffffffffffffffffffffffffffffffffffffffffffffffffffffffff8262000354565b6200039f868362000354565b95508019841693508086168417925050509392505050565b6000819050919050565b6000819050919050565b6000620003ec620003e6620003e084620003b7565b620003c1565b620003b7565b9050919050565b6000819050919050565b6200040883620003cb565b620004206200041782620003f3565b84845462000361565b825550505050565b600090565b6200043762000428565b62000444818484620003fd565b505050565b5b818110156200046c57620004606000826200042d565b6001810190506200044a565b5050565b601f821115620004bb5762000485816200032f565b620004908462000344565b81016020851015620004a0578190505b620004b8620004af8562000344565b83018262000449565b50505b505050565b600082821c905092915050565b6000620004e060001984600802620004c0565b1980831691505092915050565b6000620004fb8383620004cd565b9150826002028217905092915050565b6200051682620002c0565b67ffffffffffffffff811115620005325762000531620000d7565b5b6200053e8254620002fa565b6200054b82828562000470565b600060209050601f8311600181146200058357600084156200056e578287015190505b6200057a8582620004ed565b865550620005ea565b601f19841662000593866200032f565b60005b82811015620005bd5784890151825560018201915060208501945060208101905062000596565b86831015620005dd5784890151620005d9601f891682620004cd565b8355505b6001600288020188555050505b505050505050565b611cdb80620006026000396000f3fe608060405234801561001057600080fd5b50600436106100ea5760003560e01c806370a082311161008c578063a22cb46511610066578063a22cb4651461025d578063b88d4fde14610279578063c87b56dd14610295578063e985e9c5146102c5576100ea565b806370a08231146101f15780638da5cb5b1461022157806395d89b411461023f576100ea565b8063095ea7b3116100c8578063095ea7b31461016d57806323b872dd1461018957806342842e0e146101a55780636352211e146101c1576100ea565b806301ffc9a7146100ef57806306fdde031461011f578063081812fc1461013d575b600080fd5b61010960048036038101906101049190611525565b6102f5565b604051610116919061156d565b60405180910390f35b6101276103d7565b6040516101349190611618565b60405180910390f35b61015760048036038101906101529190611670565b610469565b60405161016491906116de565b60405180910390f35b61018760048036038101906101829190611725565b610485565b005b6101a3600480360381019061019e9190611765565b61049b565b005b6101bf60048036038101906101ba9190611765565b61059d565b005b6101db60048036038101906101d69190611670565b6105bd565b6040516101e891906116de565b60405180910390f35b61020b600480360381019061020691906117b8565b6105cf565b60405161021891906117f4565b60405180910390f35b610229610689565b60405161023691906116de565b60405180910390f35b6102476106af565b6040516102549190611618565b60405180910390f35b6102776004803603810190610272919061183b565b610741565b005b610293600480360381019061028e91906119b0565b610757565b005b6102af60048036038101906102aa9190611670565b610774565b6040516102bc9190611618565b60405180910390f35b6102df60048036038101906102da9190611a33565b6107dd565b6040516102ec919061156d565b60405180910390f35b60007f80ac58cd000000000000000000000000000000000000000000000000000000007bffffffffffffffffffffffffffffffffffffffffffffffffffffffff1916827bffffffffffffffffffffffffffffffffffffffffffffffffffffffff191614806103c057507f5b5e139f000000000000000000000000000000000000000000000000000000007bffffffffffffffffffffffffffffffffffffffffffffffffffffffff1916827bffffffffffffffffffffffffffffffffffffffffffffffffffffffff1916145b806103d057506103cf82610871565b5b9050919050565b6060600080546103e690611aa2565b80601f016020809104026020016040519081016040528092919081815260200182805461041290611aa2565b801561045f5780601f106104345761010080835404028352916020019161045f565b820191906000526020600020905b81548152906001019060200180831161044257829003601f168201915b5050505050905090565b6000610474826108db565b5061047e82610963565b9050919050565b61049782826104926109a0565b6109a8565b5050565b600073ffffffffffffffffffffffffffffffffffffffff168273ffffffffffffffffffffffffffffffffffffffff160361050d5760006040517f64a0ae9200000000000000000000000000000000000000000000000000000000815260040161050491906116de565b60405180910390fd5b6000610521838361051c6109a0565b6109ba565b90508373ffffffffffffffffffffffffffffffffffffffff168173ffffffffffffffffffffffffffffffffffffffff1614610597578382826040517f64283d7b00000000000000000000000000000000000000000000000000000000815260040161058e93929190611ad3565b60405180910390fd5b50505050565b6105b883838360405180602001604052806000815250610757565b505050565b60006105c8826108db565b9050919050565b60008073ffffffffffffffffffffffffffffffffffffffff168273ffffffffffffffffffffffffffffffffffffffff16036106425760006040517f89c62b6400000000000000000000000000000000000000000000000000000000815260040161063991906116de565b60405180910390fd5b600360008373ffffffffffffffffffffffffffffffffffffffff1673ffffffffffffffffffffffffffffffffffffffff168152602001908152602001600020549050919050565b600660009054906101000a900473ffffffffffffffffffffffffffffffffffffffff1681565b6060600180546106be90611aa2565b80601f01602080910402602001604051908101604052809291908181526020018280546106ea90611aa2565b80156107375780601f1061070c57610100808354040283529160200191610737565b820191906000526020600020905b81548152906001019060200180831161071a57829003601f168201915b5050505050905090565b61075361074c6109a0565b8383610bd4565b5050565b61076284848461049b565b61076e84848484610d43565b50505050565b606061077f826108db565b50600061078a610efa565b905060008151116107aa57604051806020016040528060008152506107d5565b806107b484610f11565b6040516020016107c5929190611b46565b6040516020818303038152906040525b915050919050565b6000600560008473ffffffffffffffffffffffffffffffffffffffff1673ffffffffffffffffffffffffffffffffffffffff16815260200190815260200160002060008373ffffffffffffffffffffffffffffffffffffffff1673ffffffffffffffffffffffffffffffffffffffff16815260200190815260200160002060009054906101000a900460ff16905092915050565b60007f01ffc9a7000000000000000000000000000000000000000000000000000000007bffffffffffffffffffffffffffffffffffffffffffffffffffffffff1916827bffffffffffffffffffffffffffffffffffffffffffffffffffffffff1916149050919050565b6000806108e783610fdf565b9050600073ffffffffffffffffffffffffffffffffffffffff168173ffffffffffffffffffffffffffffffffffffffff160361095a57826040517f7e27328900000000000000000000000000000000000000000000000000000000815260040161095191906117f4565b60405180910390fd5b80915050919050565b60006004600083815260200190815260200160002060009054906101000a900473ffffffffffffffffffffffffffffffffffffffff169050919050565b600033905090565b6109b5838383600161101c565b505050565b6000806109c684610fdf565b9050600073ffffffffffffffffffffffffffffffffffffffff168373ffffffffffffffffffffffffffffffffffffffff1614610a0857610a078184866111e1565b5b600073ffffffffffffffffffffffffffffffffffffffff168173ffffffffffffffffffffffffffffffffffffffff1614610a9957610a4a60008560008061101c565b6001600360008373ffffffffffffffffffffffffffffffffffffffff1673ffffffffffffffffffffffffffffffffffffffff168152602001908152602001600020600082825403925050819055505b600073ffffffffffffffffffffffffffffffffffffffff168573ffffffffffffffffffffffffffffffffffffffff1614610b1c576001600360008773ffffffffffffffffffffffffffffffffffffffff1673ffffffffffffffffffffffffffffffffffffffff168152602001908152602001600020600082825401925050819055505b846002600086815260200190815260200160002060006101000a81548173ffffffffffffffffffffffffffffffffffffffff021916908373ffffffffffffffffffffffffffffffffffffffff160217905550838573ffffffffffffffffffffffffffffffffffffffff168273ffffffffffffffffffffffffffffffffffffffff167fddf252ad1be2c89b69c2b068fc378daa952ba7f163c4a11628f55a4df523b3ef60405160405180910390a4809150509392505050565b600073ffffffffffffffffffffffffffffffffffffffff168273ffffffffffffffffffffffffffffffffffffffff1603610c4557816040517f5b08ba18000000000000000000000000000000000000000000000000000000008152600401610c3c91906116de565b60405180910390fd5b80600560008573ffffffffffffffffffffffffffffffffffffffff1673ffffffffffffffffffffffffffffffffffffffff16815260200190815260200160002060008473ffffffffffffffffffffffffffffffffffffffff1673ffffffffffffffffffffffffffffffffffffffff16815260200190815260200160002060006101000a81548160ff0219169083151502179055508173ffffffffffffffffffffffffffffffffffffffff168373ffffffffffffffffffffffffffffffffffffffff167f17307eab39ab6107e8899845ad3d59bd9653f200f220920489ca2b5937696c3183604051610d36919061156d565b60405180910390a3505050565b60008373ffffffffffffffffffffffffffffffffffffffff163b1115610ef4578273ffffffffffffffffffffffffffffffffffffffff1663150b7a02610d876109a0565b8685856040518563ffffffff1660e01b8152600401610da99493929190611bbf565b6020604051808303816000875af1925050508015610de557506040513d601f19601f82011682018060405250810190610de29190611c20565b60015b610e69573d8060008114610e15576040519150601f19603f3d011682016040523d82523d6000602084013e610e1a565b606091505b506000815103610e6157836040517f64a0ae92000000000000000000000000000000000000000000000000000000008152600401610e5891906116de565b60405180910390fd5b805181602001fd5b63150b7a0260e01b7bffffffffffffffffffffffffffffffffffffffffffffffffffffffff1916817bffffffffffffffffffffffffffffffffffffffffffffffffffffffff191614610ef257836040517f64a0ae92000000000000000000000000000000000000000000000000000000008152600401610ee991906116de565b60405180910390fd5b505b50505050565b606060405180602001604052806000815250905090565b606060006001610f20846112a5565b01905060008167ffffffffffffffff811115610f3f57610f3e611885565b5b6040519080825280601f01601f191660200182016040528015610f715781602001600182028036833780820191505090505b509050600082602001820190505b600115610fd4578080600190039150507f3031323334353637383961626364656600000000000000000000000000000000600a86061a8153600a8581610fc857610fc7611c4d565b5b04945060008503610f7f575b819350505050919050565b60006002600083815260200190815260200160002060009054906101000a900473ffffffffffffffffffffffffffffffffffffffff169050919050565b80806110555750600073ffffffffffffffffffffffffffffffffffffffff168273ffffffffffffffffffffffffffffffffffffffff1614155b15611189576000611065846108db565b9050600073ffffffffffffffffffffffffffffffffffffffff168373ffffffffffffffffffffffffffffffffffffffff16141580156110d057508273ffffffffffffffffffffffffffffffffffffffff168173ffffffffffffffffffffffffffffffffffffffff1614155b80156110e357506110e181846107dd565b155b1561112557826040517fa9fbf51f00000000000000000000000000000000000000000000000000000000815260040161111c91906116de565b60405180910390fd5b811561118757838573ffffffffffffffffffffffffffffffffffffffff168273ffffffffffffffffffffffffffffffffffffffff167f8c5be1e5ebec7d5bd14f71427d1e84f3dd0314c0f7b2291e5b200ac8c7c3b92560405160405180910390a45b505b836004600085815260200190815260200160002060006101000a81548173ffffffffffffffffffffffffffffffffffffffff021916908373ffffffffffffffffffffffffffffffffffffffff16021790555050505050565b6111ec8383836113f8565b6112a057600073ffffffffffffffffffffffffffffffffffffffff168373ffffffffffffffffffffffffffffffffffffffff160361126157806040517f7e27328900000000000000000000000000000000000000000000000000000000815260040161125891906117f4565b60405180910390fd5b81816040517f177e802f000000000000000000000000000000000000000000000000000000008152600401611297929190611c7c565b60405180910390fd5b505050565b600080600090507a184f03e93ff9f4daa797ed6e38ed64bf6a1f0100000000000000008310611303577a184f03e93ff9f4daa797ed6e38ed64bf6a1f01000000000000000083816112f9576112f8611c4d565b5b0492506040810190505b6d04ee2d6d415b85acef81000000008310611340576d04ee2d6d415b85acef8100000000838161133657611335611c4d565b5b0492506020810190505b662386f26fc10000831061136f57662386f26fc10000838161136557611364611c4d565b5b0492506010810190505b6305f5e1008310611398576305f5e100838161138e5761138d611c4d565b5b0492506008810190505b61271083106113bd5761271083816113b3576113b2611c4d565b5b0492506004810190505b606483106113e057606483816113d6576113d5611c4d565b5b0492506002810190505b600a83106113ef576001810190505b80915050919050565b60008073ffffffffffffffffffffffffffffffffffffffff168373ffffffffffffffffffffffffffffffffffffffff16141580156114b057508273ffffffffffffffffffffffffffffffffffffffff168473ffffffffffffffffffffffffffffffffffffffff161480611471575061147084846107dd565b5b806114af57508273ffffffffffffffffffffffffffffffffffffffff1661149783610963565b73ffffffffffffffffffffffffffffffffffffffff16145b5b90509392505050565b6000604051905090565b600080fd5b600080fd5b60007fffffffff0000000000000000000000000000000000000000000000000000000082169050919050565b611502816114cd565b811461150d57600080fd5b50565b60008135905061151f816114f9565b92915050565b60006020828403121561153b5761153a6114c3565b5b600061154984828501611510565b91505092915050565b60008115159050919050565b61156781611552565b82525050565b6000602082019050611582600083018461155e565b92915050565b600081519050919050565b600082825260208201905092915050565b60005b838110156115c25780820151818401526020810190506115a7565b60008484015250505050565b6000601f19601f8301169050919050565b60006115ea82611588565b6115f48185611593565b93506116048185602086016115a4565b61160d816115ce565b840191505092915050565b6000602082019050818103600083015261163281846115df565b905092915050565b6000819050919050565b61164d8161163a565b811461165857600080fd5b50565b60008135905061166a81611644565b92915050565b600060208284031215611686576116856114c3565b5b60006116948482850161165b565b91505092915050565b600073ffffffffffffffffffffffffffffffffffffffff82169050919050565b60006116c88261169d565b9050919050565b6116d8816116bd565b82525050565b60006020820190506116f360008301846116cf565b92915050565b611702816116bd565b811461170d57600080fd5b50565b60008135905061171f816116f9565b92915050565b6000806040838503121561173c5761173b6114c3565b5b600061174a85828601611710565b925050602061175b8582860161165b565b9150509250929050565b60008060006060848603121561177e5761177d6114c3565b5b600061178c86828701611710565b935050602061179d86828701611710565b92505060406117ae8682870161165b565b9150509250925092565b6000602082840312156117ce576117cd6114c3565b5b60006117dc84828501611710565b91505092915050565b6117ee8161163a565b82525050565b600060208201905061180960008301846117e5565b92915050565b61181881611552565b811461182357600080fd5b50565b6000813590506118358161180f565b92915050565b60008060408385031215611852576118516114c3565b5b600061186085828601611710565b925050602061187185828601611826565b9150509250929050565b600080fd5b600080fd5b7f4e487b7100000000000000000000000000000000000000000000000000000000600052604160045260246000fd5b6118bd826115ce565b810181811067ffffffffffffffff821117156118dc576118db611885565b5b80604052505050565b60006118ef6114b9565b90506118fb82826118b4565b919050565b600067ffffffffffffffff82111561191b5761191a611885565b5b611924826115ce565b9050602081019050919050565b82818337600083830152505050565b600061195361194e84611900565b6118e5565b90508281526020810184848401111561196f5761196e611880565b5b61197a848285611931565b509392505050565b600082601f8301126119975761199661187b565b5b81356119a7848260208601611940565b91505092915050565b600080600080608085870312156119ca576119c96114c3565b5b60006119d887828801611710565b94505060206119e987828801611710565b93505060406119fa8782880161165b565b925050606085013567ffffffffffffffff811115611a1b57611a1a6114c8565b5b611a2787828801611982565b91505092959194509250565b60008060408385031215611a4a57611a496114c3565b5b6000611a5885828601611710565b9250506020611a6985828601611710565b9150509250929050565b7f4e487b7100000000000000000000000000000000000000000000000000000000600052602260045260246000fd5b60006002820490506001821680611aba57607f821691505b602082108103611acd57611acc611a73565b5b50919050565b6000606082019050611ae860008301866116cf565b611af560208301856117e5565b611b0260408301846116cf565b949350505050565b600081905092915050565b6000611b2082611588565b611b2a8185611b0a565b9350611b3a8185602086016115a4565b80840191505092915050565b6000611b528285611b15565b9150611b5e8284611b15565b91508190509392505050565b600081519050919050565b600082825260208201905092915050565b6000611b9182611b6a565b611b9b8185611b75565b9350611bab8185602086016115a4565b611bb4816115ce565b840191505092915050565b6000608082019050611bd460008301876116cf565b611be160208301866116cf565b611bee60408301856117e5565b8181036060830152611c008184611b86565b905095945050505050565b600081519050611c1a816114f9565b92915050565b600060208284031215611c3657611c356114c3565b5b6000611c4484828501611c0b565b91505092915050565b7f4e487b7100000000000000000000000000000000000000000000000000000000600052601260045260246000fd5b6000604082019050611c9160008301856116cf565b611c9e60208301846117e5565b939250505056fea26469706673582212203ad0ef00a7567390f5f1caff3b3888703bef282646907d37f929cf668db310d064736f6c63430008140033",
  "linkReferences": {},
  "deployedLinkReferences": {}
}