{
  "_format": "hh-sol-artifact-1",
  "contractName": "CaloToken",
  "sourceName": "contracts/CaloToken.sol",
  "abi": [
    {
      "inputs": [
        {
          "internalType": "string",
          "name": "_name",
          "type": "string"
        },
        {
          "internalType": "string",
          "name": "_symbol",
          "type": "string"
        }
      ],
      "stateMutability": "nonpayable",
      "type": "constructor"
    },
    {
      "inputs": [
        {
          "internalType": "address",
          "name": "sender",
          "type": "address"
        },
        {
          "internalType": "uint256",
          "name": "tokenId",
          "type": "uint256"
        },
        {
          "internalType": "address",
          "name": "owner",
          "type": "address"
        }
      ],
      "name": "ERC721IncorrectOwner",
      "type": "error"
    },
    {
      "inputs": [
        {
          "internalType": "address",
          "name": "operator",
          "type": "address"
        },
        {
          "internalType": "uint256",
          "name": "tokenId",
          "type": "uint256"
        }
      ],
      "name": "ERC721InsufficientApproval",
      "type": "error"
    },
    {
      "inputs": [
        {
          "internalType": "address",
          "name": "approver",
          "type": "address"
        }
      ],
      "name": "ERC721InvalidApprover",
      "type": "error"
    },
    {
      "inputs": [
        {
          "internalType": "address",
          "name": "operator",
          "type": "address"
        }
      ],
      "name": "ERC721InvalidOperator",
      "type": "error"
    },
    {
      "inputs": [
        {
          "internalType": "address",
          "name": "owner",
          "type": "address"
        }
      ],
      "name": "ERC721InvalidOwner",
      "type": "error"
    },
    {
      "inputs": [
        {
          "internalType": "address",
          "name": "receiver",
          "type": "address"
        }
      ],
      "name": "ERC721InvalidReceiver",
      "type": "error"
    },
    {
      "inputs": [
        {
          "internalType": "address",
          "name": "sender",
          "type": "address"
        }
      ],
      "name": "ERC721InvalidSender",
      "type": "error"
    },
    {
      "inputs": [
        {
          "internalType": "uint256",
          "name": "tokenId",
          "type": "uint256"
        }
      ],
      "name": "ERC721NonexistentToken",
      "type": "error"
    },
    {
      "anonymous": false,
      "inputs": [
        {
          "indexed": true,
          "internalType": "address",
          "name": "owner",
          "type": "address"
        },
        {
          "indexed": true,
          "internalType": "address",
          "name": "approved",
          "type": "address"
        },
        {
          "indexed": true,
          "internalType": "uint256",
          "name": "tokenId",
          "type": "uint256"
        }
      ],
      "name": "Approval",
      "type": "event"
    },
    {
      "anonymous": false,
      "inputs": [
        {
          "indexed": true,
          "internalType": "address",
          "name": "owner",
          "type": "address"
        },
        {
          "indexed": true,
          "internalType": "address",
          "name": "operator",
          "type": "address"
        },
        {
          "indexed": false,
          "internalType": "bool",
          "name": "approved",
          "type": "bool"
        }
      ],
      "name": "ApprovalForAll",
      "type": "event"
    },
    {
      "anonymous": false,
      "inputs": [
        {
          "indexed": true,
          "internalType": "address",
          "name": "from",
          "type": "address"
        },
        {
          "indexed": true,
          "internalType": "address",
          "name": "to",
          "type": "address"
        },
        {
          "indexed": true,
          "internalType": "uint256",
          "name": "tokenId",
          "type": "uint256"
        }
      ],
      "name": "Transfer",
      "type": "event"
    },
    {
      "inputs": [
        {
          "internalType": "address",
          "name": "to",
          "type": "address"
        },
        {
          "internalType": "uint256",
          "name": "tokenId",
          "type": "uint256"
        }
      ],
      "name": "approve",
      "outputs": [],
      "stateMutability": "nonpayable",
      "type": "function"
    },
    {
      "inputs": [
        {
          "internalType": "address",
          "name": "owner",
          "type": "address"
        }
      ],
      "name": "balanceOf",
      "outputs": [
        {
          "internalType": "uint256",
          "name": "",
          "type": "uint256"
        }
      ],
      "stateMutability": "view",
      "type": "function"
    },
    {
      "inputs": [
        {
          "internalType": "uint256",
          "name": "",
          "type": "uint256"
        }
      ],
      "name": "caloevent",
      "outputs": [
        {
          "internalType": "uint256",
          "name": "id",
          "type": "uint256"
        },
        {
          "internalType": "string",
          "name": "name",
          "type": "string"
        },
        {
          "internalType": "uint256",
          "name": "cost",
          "type": "uint256"
        },
        {
          "internalType": "uint256",
          "name": "tickets",
          "type": "uint256"
        },
        {
          "internalType": "uint256",
          "name": "maxTickets",
          "type": "uint256"
        },
        {
          "internalType": "string",
          "name": "date",
          "type": "string"
        },
        {
          "internalType": "string",
          "name": "time",
          "type": "string"
        },
        {
          "internalType": "string",
          "name": "location",
          "type": "string"
        }
      ],
      "stateMutability": "view",
      "type": "function"
    },
    {
      "inputs": [
        {
          "internalType": "uint256",
          "name": "_id",
          "type": "uint256"
        }
      ],
      "name": "cancel",
      "outputs": [],
      "stateMutability": "nonpayable",
      "type": "function"
    },
    {
      "inputs": [
        {
          "internalType": "uint256",
          "name": "tokenId",
          "type": "uint256"
        }
      ],
      "name": "getApproved",
      "outputs": [
        {
          "internalType": "address",
          "name": "",
          "type": "address"
        }
      ],
      "stateMutability": "view",
      "type": "function"
    },
    {
      "inputs": [
        {
          "internalType": "uint256",
          "name": "_id",
          "type": "uint256"
        }
      ],
      "name": "getCaloEvent",
      "outputs": [
        {
          "components": [
            {
              "internalType": "uint256",
              "name": "id",
              "type": "uint256"
            },
            {
              "internalType": "string",
              "name": "name",
              "type": "string"
            },
            {
              "internalType": "uint256",
              "name": "cost",
              "type": "uint256"
            },
            {
              "internalType": "uint256",
              "name": "tickets",
              "type": "uint256"
            },
            {
              "internalType": "uint256",
              "name": "maxTickets",
              "type": "uint256"
            },
            {
              "internalType": "string",
              "name": "date",
              "type": "string"
            },
            {
              "internalType": "string",
              "name": "time",
              "type": "string"
            },
            {
              "internalType": "string",
              "name": "location",
              "type": "string"
            }
          ],
          "internalType": "struct CaloToken.CaloEvent",
          "name": "",
          "type": "tuple"
        }
      ],
      "stateMutability": "view",
      "type": "function"
    },
    {
      "inputs": [
        {
          "internalType": "uint256",
          "name": "",
          "type": "uint256"
        },
        {
          "internalType": "address",
          "name": "",
          "type": "address"
        }
      ],
      "name": "hasBought",
      "outputs": [
        {
          "internalType": "bool",
          "name": "",
          "type": "bool"
        }
      ],
      "stateMutability": "view",
      "type": "function"
    },
    {
      "inputs": [
        {
          "internalType": "address",
          "name": "owner",
          "type": "address"
        },
        {
          "internalType": "address",
          "name": "operator",
          "type": "address"
        }
      ],
      "name": "isApprovedForAll",
      "outputs": [
        {
          "internalType": "bool",
          "name": "",
          "type": "bool"
        }
      ],
      "stateMutability": "view",
      "type": "function"
    },
    {
      "inputs": [
        {
          "internalType": "string",
          "name": "_name",
          "type": "string"
        },
        {
          "internalType": "uint256",
          "name": "_cost",
          "type": "uint256"
        },
        {
          "internalType": "uint256",
          "name": "_tickets",
          "type": "uint256"
        },
        {
          "internalType": "uint256",
          "name": "_maxTickets",
          "type": "uint256"
        },
        {
          "internalType": "string",
          "name": "_date",
          "type": "string"
        },
        {
          "internalType": "string",
          "name": "_time",
          "type": "string"
        },
        {
          "internalType": "string",
          "name": "_location",
          "type": "string"
        }
      ],
      "name": "list",
      "outputs": [],
      "stateMutability": "nonpayable",
      "type": "function"
    },
    {
      "inputs": [
        {
          "internalType": "uint256",
          "name": "_id",
          "type": "uint256"
        }
      ],
      "name": "mint",
      "outputs": [],
      "stateMutability": "payable",
      "type": "function"
    },
    {
      "inputs": [],
      "name": "name",
      "outputs": [
        {
          "internalType": "string",
          "name": "",
          "type": "string"
        }
      ],
      "stateMutability": "view",
      "type": "function"
    },
    {
      "inputs": [],
      "name": "owner",
      "outputs": [
        {
          "internalType": "address",
          "name": "",
          "type": "address"
        }
      ],
      "stateMutability": "view",
      "type": "function"
    },
    {
      "inputs": [
        {
          "internalType": "uint256",
          "name": "tokenId",
          "type": "uint256"
        }
      ],
      "name": "ownerOf",
      "outputs": [
        {
          "internalType": "address",
          "name": "",
          "type": "address"
        }
      ],
      "stateMutability": "view",
      "type": "function"
    },
    {
      "inputs": [
        {
          "internalType": "address",
          "name": "from",
          "type": "address"
        },
        {
          "internalType": "address",
          "name": "to",
          "type": "address"
        },
        {
          "internalType": "uint256",
          "name": "tokenId",
          "type": "uint256"
        }
      ],
      "name": "safeTransferFrom",
      "outputs": [],
      "stateMutability": "nonpayable",
      "type": "function"
    },
    {
      "inputs": [
        {
          "internalType": "address",
          "name": "from",
          "type": "address"
        },
        {
          "internalType": "address",
          "name": "to",
          "type": "address"
        },
        {
          "internalType": "uint256",
          "name": "tokenId",
          "type": "uint256"
        },
        {
          "internalType": "bytes",
          "name": "data",
          "type": "bytes"
        }
      ],
      "name": "safeTransferFrom",
      "outputs": [],
      "stateMutability": "nonpayable",
      "type": "function"
    },
    {
      "inputs": [
        {
          "internalType": "address",
          "name": "operator",
          "type": "address"
        },
        {
          "internalType": "bool",
          "name": "approved",
          "type": "bool"
        }
      ],
      "name": "setApprovalForAll",
      "outputs": [],
      "stateMutability": "nonpayable",
      "type": "function"
    },
    {
      "inputs": [
        {
          "internalType": "bytes4",
          "name": "interfaceId",
          "type": "bytes4"
        }
      ],
      "name": "supportsInterface",
      "outputs": [
        {
          "internalType": "bool",
          "name": "",
          "type": "bool"
        }
      ],
      "stateMutability": "view",
      "type": "function"
    },
    {
      "inputs": [],
      "name": "symbol",
      "outputs": [
        {
          "internalType": "string",
          "name": "",
          "type": "string"
        }
      ],
      "stateMutability": "view",
      "type": "function"
    },
    {
      "inputs": [
        {
          "internalType": "uint256",
          "name": "tokenId",
          "type": "uint256"
        }
      ],
      "name": "tokenURI",
      "outputs": [
        {
          "internalType": "string",
          "name": "",
          "type": "string"
        }
      ],
      "stateMutability": "view",
      "type": "function"
    },
    {
      "inputs": [],
      "name": "totalCaloEvent",
      "outputs": [
        {
          "internalType": "uint256",
          "name": "",
          "type": "uint256"
        }
      ],
      "stateMutability": "view",
      "type": "function"
    },
    {
      "inputs": [],
      "name": "totalSupply",
      "outputs": [
        {
          "internalType": "uint256",
          "name": "",
          "type": "uint256"
        }
      ],
      "stateMutability": "view",
      "type": "function"
    },
    {
      "inputs": [
        {
          "internalType": "address",
          "name": "from",
          "type": "address"
        },
        {
          "internalType": "address",
          "name": "to",
          "type": "address"
        },
        {
          "internalType": "uint256",
          "name": "tokenId",
          "type": "uint256"
        }
      ],
      "name": "transferFrom",
      "outputs": [],
      "stateMutability": "nonpayable",
      "type": "function"
    },
    {
      "inputs": [],
      "name": "withdraw",
      "outputs": [],
      "stateMutability": "nonpayable",
      "type": "function"
    }
  ],
  "bytecode": "0x60806040523480156200001157600080fd5b5060405162003e3638038062003e3683398181016040528101906200003791906200023b565b818181600090816200004a91906200050b565b5080600190816200005c91906200050b565b50505033600660006101000a81548173ffffffffffffffffffffffffffffffffffffffff021916908373ffffffffffffffffffffffffffffffffffffffff1602179055505050620005f2565b6000604051905090565b600080fd5b600080fd5b600080fd5b600080fd5b6000601f19601f8301169050919050565b7f4e487b7100000000000000000000000000000000000000000000000000000000600052604160045260246000fd5b6200011182620000c6565b810181811067ffffffffffffffff82111715620001335762000132620000d7565b5b80604052505050565b600062000148620000a8565b905062000156828262000106565b919050565b600067ffffffffffffffff821115620001795762000178620000d7565b5b6200018482620000c6565b9050602081019050919050565b60005b83811015620001b157808201518184015260208101905062000194565b60008484015250505050565b6000620001d4620001ce846200015b565b6200013c565b905082815260208101848484011115620001f357620001f2620000c1565b5b6200020084828562000191565b509392505050565b600082601f83011262000220576200021f620000bc565b5b815162000232848260208601620001bd565b91505092915050565b60008060408385031215620002555762000254620000b2565b5b600083015167ffffffffffffffff811115620002765762000275620000b7565b5b620002848582860162000208565b925050602083015167ffffffffffffffff811115620002a857620002a7620000b7565b5b620002b68582860162000208565b9150509250929050565b600081519050919050565b7f4e487b7100000000000000000000000000000000000000000000000000000000600052602260045260246000fd5b600060028204905060018216806200031357607f821691505b602082108103620003295762000328620002cb565b5b50919050565b60008190508160005260206000209050919050565b60006020601f8301049050919050565b600082821b905092915050565b600060088302620003937fffffffffffffffffffffffffffffffffffffffffffffffffffffffffffffffff8262000354565b6200039f868362000354565b95508019841693508086168417925050509392505050565b6000819050919050565b6000819050919050565b6000620003ec620003e6620003e084620003b7565b620003c1565b620003b7565b9050919050565b6000819050919050565b6200040883620003cb565b620004206200041782620003f3565b84845462000361565b825550505050565b600090565b6200043762000428565b62000444818484620003fd565b505050565b5b818110156200046c57620004606000826200042d565b6001810190506200044a565b5050565b601f821115620004bb5762000485816200032f565b620004908462000344565b81016020851015620004a0578190505b620004b8620004af8562000344565b83018262000449565b50505b505050565b600082821c905092915050565b6000620004e060001984600802620004c0565b1980831691505092915050565b6000620004fb8383620004cd565b9150826002028217905092915050565b6200051682620002c0565b67ffffffffffffffff811115620005325762000531620000d7565b5b6200053e8254620002fa565b6200054b82828562000470565b600060209050601f8311600181146200058357600084156200056e578287015190505b6200057a8582620004ed565b865550620005ea565b601f19841662000593866200032f565b60005b82811015620005bd5784890151825560018201915060208501945060208101905062000596565b86831015620005dd5784890151620005d9601f891682620004cd565b8355505b6001600288020188555050505b505050505050565b61383480620006026000396000f3fe6080604052600436106101405760003560e01c806370a08231116100b65780639cf0b5f51161006f5780639cf0b5f51461046e578063a0712d68146104b2578063a22cb465146104ce578063b88d4fde146104f7578063c87b56dd14610520578063e985e9c51461055d57610140565b806370a08231146103365780638010265b146103735780638da5cb5b1461039e57806395d89b41146103c957806399035674146103f45780639cb04aef1461043157610140565b806318160ddd1161010857806318160ddd1461023c57806323b872dd146102675780633ccfd60b1461029057806340e58ee5146102a757806342842e0e146102d05780636352211e146102f957610140565b806301ffc9a71461014557806306fdde0314610182578063081812fc146101ad578063095ea7b3146101ea57806310d6cc1c14610213575b600080fd5b34801561015157600080fd5b5061016c6004803603810190610167919061263a565b61059a565b6040516101799190612682565b60405180910390f35b34801561018e57600080fd5b5061019761067c565b6040516101a4919061272d565b60405180910390f35b3480156101b957600080fd5b506101d460048036038101906101cf9190612785565b61070e565b6040516101e191906127f3565b60405180910390f35b3480156101f657600080fd5b50610211600480360381019061020c919061283a565b61072a565b005b34801561021f57600080fd5b5061023a600480360381019061023591906129af565b610740565b005b34801561024857600080fd5b506102516108c5565b60405161025e9190612ad0565b60405180910390f35b34801561027357600080fd5b5061028e60048036038101906102899190612aeb565b6108cb565b005b34801561029c57600080fd5b506102a56109cd565b005b3480156102b357600080fd5b506102ce60048036038101906102c99190612785565b610af8565b005b3480156102dc57600080fd5b506102f760048036038101906102f29190612aeb565b610d81565b005b34801561030557600080fd5b50610320600480360381019061031b9190612785565b610da1565b60405161032d91906127f3565b60405180910390f35b34801561034257600080fd5b5061035d60048036038101906103589190612b3e565b610db3565b60405161036a9190612ad0565b60405180910390f35b34801561037f57600080fd5b50610388610e6d565b6040516103959190612ad0565b60405180910390f35b3480156103aa57600080fd5b506103b3610e73565b6040516103c091906127f3565b60405180910390f35b3480156103d557600080fd5b506103de610e99565b6040516103eb919061272d565b60405180910390f35b34801561040057600080fd5b5061041b60048036038101906104169190612785565b610f2b565b6040516104289190612c89565b60405180910390f35b34801561043d57600080fd5b5061045860048036038101906104539190612cab565b6111c9565b6040516104659190612682565b60405180910390f35b34801561047a57600080fd5b5061049560048036038101906104909190612785565b6111f8565b6040516104a9989796959493929190612ceb565b60405180910390f35b6104cc60048036038101906104c79190612785565b611460565b005b3480156104da57600080fd5b506104f560048036038101906104f09190612db1565b611658565b005b34801561050357600080fd5b5061051e60048036038101906105199190612e92565b61166e565b005b34801561052c57600080fd5b5061054760048036038101906105429190612785565b61168b565b604051610554919061272d565b60405180910390f35b34801561056957600080fd5b50610584600480360381019061057f9190612f15565b6116f4565b6040516105919190612682565b60405180910390f35b60007f80ac58cd000000000000000000000000000000000000000000000000000000007bffffffffffffffffffffffffffffffffffffffffffffffffffffffff1916827bffffffffffffffffffffffffffffffffffffffffffffffffffffffff1916148061066557507f5b5e139f000000000000000000000000000000000000000000000000000000007bffffffffffffffffffffffffffffffffffffffffffffffffffffffff1916827bffffffffffffffffffffffffffffffffffffffffffffffffffffffff1916145b80610675575061067482611788565b5b9050919050565b60606000805461068b90612f84565b80601f01602080910402602001604051908101604052809291908181526020018280546106b790612f84565b80156107045780601f106106d957610100808354040283529160200191610704565b820191906000526020600020905b8154815290600101906020018083116106e757829003601f168201915b5050505050905090565b6000610719826117f2565b506107238261187a565b9050919050565b61073c82826107376118b7565b6118bf565b5050565b600660009054906101000a900473ffffffffffffffffffffffffffffffffffffffff1673ffffffffffffffffffffffffffffffffffffffff163373ffffffffffffffffffffffffffffffffffffffff16146107d0576040517f08c379a00000000000000000000000000000000000000000000000000000000081526004016107c790613027565b60405180910390fd5b600760008154809291906107e390613076565b9190505550604051806101000160405280600754815260200188815260200187815260200186815260200185815260200184815260200183815260200182815250600960006007548152602001908152602001600020600082015181600001556020820151816001019081610858919061326a565b5060408201518160020155606082015181600301556080820151816004015560a082015181600501908161088c919061326a565b5060c08201518160060190816108a2919061326a565b5060e08201518160070190816108b8919061326a565b5090505050505050505050565b60085481565b600073ffffffffffffffffffffffffffffffffffffffff168273ffffffffffffffffffffffffffffffffffffffff160361093d5760006040517f64a0ae9200000000000000000000000000000000000000000000000000000000815260040161093491906127f3565b60405180910390fd5b6000610951838361094c6118b7565b6118d1565b90508373ffffffffffffffffffffffffffffffffffffffff168173ffffffffffffffffffffffffffffffffffffffff16146109c7578382826040517f64283d7b0000000000000000000000000000000000000000000000000000000081526004016109be9392919061333c565b60405180910390fd5b50505050565b600660009054906101000a900473ffffffffffffffffffffffffffffffffffffffff1673ffffffffffffffffffffffffffffffffffffffff163373ffffffffffffffffffffffffffffffffffffffff1614610a5d576040517f08c379a0000000000000000000000000000000000000000000000000000000008152600401610a5490613027565b60405180910390fd5b6000600660009054906101000a900473ffffffffffffffffffffffffffffffffffffffff1673ffffffffffffffffffffffffffffffffffffffff1647604051610aa5906133a4565b60006040518083038185875af1925050503d8060008114610ae2576040519150601f19603f3d011682016040523d82523d6000602084013e610ae7565b606091505b5050905080610af557600080fd5b50565b60008103610b3b576040517f08c379a0000000000000000000000000000000000000000000000000000000008152600401610b3290613405565b60405180910390fd5b600754811115610b80576040517f08c379a0000000000000000000000000000000000000000000000000000000008152600401610b7790613471565b60405180910390fd5b600a600082815260200190815260200160002060003373ffffffffffffffffffffffffffffffffffffffff1673ffffffffffffffffffffffffffffffffffffffff16815260200190815260200160002060009054906101000a900460ff16610c1d576040517f08c379a0000000000000000000000000000000000000000000000000000000008152600401610c1490613503565b60405180910390fd5b6001600960008381526020019081526020016000206003016000828254610c449190613523565b925050819055506000600a600083815260200190815260200160002060003373ffffffffffffffffffffffffffffffffffffffff1673ffffffffffffffffffffffffffffffffffffffff16815260200190815260200160002060006101000a81548160ff0219169083151502179055506000600190505b6008548111610d20573373ffffffffffffffffffffffffffffffffffffffff16610ce482610da1565b73ffffffffffffffffffffffffffffffffffffffff1603610d0d57610d0881611aeb565b610d20565b8080610d1890613076565b915050610cbb565b503373ffffffffffffffffffffffffffffffffffffffff166108fc60096000848152602001908152602001600020600201549081150290604051600060405180830381858888f19350505050158015610d7d573d6000803e3d6000fd5b5050565b610d9c8383836040518060200160405280600081525061166e565b505050565b6000610dac826117f2565b9050919050565b60008073ffffffffffffffffffffffffffffffffffffffff168273ffffffffffffffffffffffffffffffffffffffff1603610e265760006040517f89c62b64000000000000000000000000000000000000000000000000000000008152600401610e1d91906127f3565b60405180910390fd5b600360008373ffffffffffffffffffffffffffffffffffffffff1673ffffffffffffffffffffffffffffffffffffffff168152602001908152602001600020549050919050565b60075481565b600660009054906101000a900473ffffffffffffffffffffffffffffffffffffffff1681565b606060018054610ea890612f84565b80601f0160208091040260200160405190810160405280929190818152602001828054610ed490612f84565b8015610f215780601f10610ef657610100808354040283529160200191610f21565b820191906000526020600020905b815481529060010190602001808311610f0457829003601f168201915b5050505050905090565b610f33612589565b600960008381526020019081526020016000206040518061010001604052908160008201548152602001600182018054610f6c90612f84565b80601f0160208091040260200160405190810160405280929190818152602001828054610f9890612f84565b8015610fe55780601f10610fba57610100808354040283529160200191610fe5565b820191906000526020600020905b815481529060010190602001808311610fc857829003601f168201915b5050505050815260200160028201548152602001600382015481526020016004820154815260200160058201805461101c90612f84565b80601f016020809104026020016040519081016040528092919081815260200182805461104890612f84565b80156110955780601f1061106a57610100808354040283529160200191611095565b820191906000526020600020905b81548152906001019060200180831161107857829003601f168201915b505050505081526020016006820180546110ae90612f84565b80601f01602080910402602001604051908101604052809291908181526020018280546110da90612f84565b80156111275780601f106110fc57610100808354040283529160200191611127565b820191906000526020600020905b81548152906001019060200180831161110a57829003601f168201915b5050505050815260200160078201805461114090612f84565b80601f016020809104026020016040519081016040528092919081815260200182805461116c90612f84565b80156111b95780601f1061118e576101008083540402835291602001916111b9565b820191906000526020600020905b81548152906001019060200180831161119c57829003601f168201915b5050505050815250509050919050565b600a6020528160005260406000206020528060005260406000206000915091509054906101000a900460ff1681565b600960205280600052604060002060009150905080600001549080600101805461122190612f84565b80601f016020809104026020016040519081016040528092919081815260200182805461124d90612f84565b801561129a5780601f1061126f5761010080835404028352916020019161129a565b820191906000526020600020905b81548152906001019060200180831161127d57829003601f168201915b5050505050908060020154908060030154908060040154908060050180546112c190612f84565b80601f01602080910402602001604051908101604052809291908181526020018280546112ed90612f84565b801561133a5780601f1061130f5761010080835404028352916020019161133a565b820191906000526020600020905b81548152906001019060200180831161131d57829003601f168201915b50505050509080600601805461134f90612f84565b80601f016020809104026020016040519081016040528092919081815260200182805461137b90612f84565b80156113c85780601f1061139d576101008083540402835291602001916113c8565b820191906000526020600020905b8154815290600101906020018083116113ab57829003601f168201915b5050505050908060070180546113dd90612f84565b80601f016020809104026020016040519081016040528092919081815260200182805461140990612f84565b80156114565780601f1061142b57610100808354040283529160200191611456565b820191906000526020600020905b81548152906001019060200180831161143957829003601f168201915b5050505050905088565b600081036114a3576040517f08c379a000000000000000000000000000000000000000000000000000000000815260040161149a90613405565b60405180910390fd5b6007548111156114e8576040517f08c379a00000000000000000000000000000000000000000000000000000000081526004016114df90613471565b60405180910390fd5b6009600082815260200190815260200160002060020154341015611541576040517f08c379a0000000000000000000000000000000000000000000000000000000008152600401611538906135a3565b60405180910390fd5b600060096000838152602001908152602001600020600301541161159a576040517f08c379a00000000000000000000000000000000000000000000000000000000081526004016115919061360f565b60405180910390fd5b60016009600083815260200190815260200160002060030160008282546115c1919061362f565b925050819055506001600a600083815260200190815260200160002060003373ffffffffffffffffffffffffffffffffffffffff1673ffffffffffffffffffffffffffffffffffffffff16815260200190815260200160002060006101000a81548160ff0219169083151502179055506008600081548092919061164490613076565b919050555061165533600854611b71565b50565b61166a6116636118b7565b8383611b8f565b5050565b6116798484846108cb565b61168584848484611cfe565b50505050565b6060611696826117f2565b5060006116a1611eb5565b905060008151116116c157604051806020016040528060008152506116ec565b806116cb84611ecc565b6040516020016116dc92919061369f565b6040516020818303038152906040525b915050919050565b6000600560008473ffffffffffffffffffffffffffffffffffffffff1673ffffffffffffffffffffffffffffffffffffffff16815260200190815260200160002060008373ffffffffffffffffffffffffffffffffffffffff1673ffffffffffffffffffffffffffffffffffffffff16815260200190815260200160002060009054906101000a900460ff16905092915050565b60007f01ffc9a7000000000000000000000000000000000000000000000000000000007bffffffffffffffffffffffffffffffffffffffffffffffffffffffff1916827bffffffffffffffffffffffffffffffffffffffffffffffffffffffff1916149050919050565b6000806117fe83611f9a565b9050600073ffffffffffffffffffffffffffffffffffffffff168173ffffffffffffffffffffffffffffffffffffffff160361187157826040517f7e2732890000000000000000000000000000000000000000000000000000000081526004016118689190612ad0565b60405180910390fd5b80915050919050565b60006004600083815260200190815260200160002060009054906101000a900473ffffffffffffffffffffffffffffffffffffffff169050919050565b600033905090565b6118cc8383836001611fd7565b505050565b6000806118dd84611f9a565b9050600073ffffffffffffffffffffffffffffffffffffffff168373ffffffffffffffffffffffffffffffffffffffff161461191f5761191e81848661219c565b5b600073ffffffffffffffffffffffffffffffffffffffff168173ffffffffffffffffffffffffffffffffffffffff16146119b057611961600085600080611fd7565b6001600360008373ffffffffffffffffffffffffffffffffffffffff1673ffffffffffffffffffffffffffffffffffffffff168152602001908152602001600020600082825403925050819055505b600073ffffffffffffffffffffffffffffffffffffffff168573ffffffffffffffffffffffffffffffffffffffff1614611a33576001600360008773ffffffffffffffffffffffffffffffffffffffff1673ffffffffffffffffffffffffffffffffffffffff168152602001908152602001600020600082825401925050819055505b846002600086815260200190815260200160002060006101000a81548173ffffffffffffffffffffffffffffffffffffffff021916908373ffffffffffffffffffffffffffffffffffffffff160217905550838573ffffffffffffffffffffffffffffffffffffffff168273ffffffffffffffffffffffffffffffffffffffff167fddf252ad1be2c89b69c2b068fc378daa952ba7f163c4a11628f55a4df523b3ef60405160405180910390a4809150509392505050565b6000611afa60008360006118d1565b9050600073ffffffffffffffffffffffffffffffffffffffff168173ffffffffffffffffffffffffffffffffffffffff1603611b6d57816040517f7e273289000000000000000000000000000000000000000000000000000000008152600401611b649190612ad0565b60405180910390fd5b5050565b611b8b828260405180602001604052806000815250612260565b5050565b600073ffffffffffffffffffffffffffffffffffffffff168273ffffffffffffffffffffffffffffffffffffffff1603611c0057816040517f5b08ba18000000000000000000000000000000000000000000000000000000008152600401611bf791906127f3565b60405180910390fd5b80600560008573ffffffffffffffffffffffffffffffffffffffff1673ffffffffffffffffffffffffffffffffffffffff16815260200190815260200160002060008473ffffffffffffffffffffffffffffffffffffffff1673ffffffffffffffffffffffffffffffffffffffff16815260200190815260200160002060006101000a81548160ff0219169083151502179055508173ffffffffffffffffffffffffffffffffffffffff168373ffffffffffffffffffffffffffffffffffffffff167f17307eab39ab6107e8899845ad3d59bd9653f200f220920489ca2b5937696c3183604051611cf19190612682565b60405180910390a3505050565b60008373ffffffffffffffffffffffffffffffffffffffff163b1115611eaf578273ffffffffffffffffffffffffffffffffffffffff1663150b7a02611d426118b7565b8685856040518563ffffffff1660e01b8152600401611d649493929190613718565b6020604051808303816000875af1925050508015611da057506040513d601f19601f82011682018060405250810190611d9d9190613779565b60015b611e24573d8060008114611dd0576040519150601f19603f3d011682016040523d82523d6000602084013e611dd5565b606091505b506000815103611e1c57836040517f64a0ae92000000000000000000000000000000000000000000000000000000008152600401611e1391906127f3565b60405180910390fd5b805181602001fd5b63150b7a0260e01b7bffffffffffffffffffffffffffffffffffffffffffffffffffffffff1916817bffffffffffffffffffffffffffffffffffffffffffffffffffffffff191614611ead57836040517f64a0ae92000000000000000000000000000000000000000000000000000000008152600401611ea491906127f3565b60405180910390fd5b505b50505050565b606060405180602001604052806000815250905090565b606060006001611edb8461227c565b01905060008167ffffffffffffffff811115611efa57611ef9612884565b5b6040519080825280601f01601f191660200182016040528015611f2c5781602001600182028036833780820191505090505b509050600082602001820190505b600115611f8f578080600190039150507f3031323334353637383961626364656600000000000000000000000000000000600a86061a8153600a8581611f8357611f826137a6565b5b04945060008503611f3a575b819350505050919050565b60006002600083815260200190815260200160002060009054906101000a900473ffffffffffffffffffffffffffffffffffffffff169050919050565b80806120105750600073ffffffffffffffffffffffffffffffffffffffff168273ffffffffffffffffffffffffffffffffffffffff1614155b15612144576000612020846117f2565b9050600073ffffffffffffffffffffffffffffffffffffffff168373ffffffffffffffffffffffffffffffffffffffff161415801561208b57508273ffffffffffffffffffffffffffffffffffffffff168173ffffffffffffffffffffffffffffffffffffffff1614155b801561209e575061209c81846116f4565b155b156120e057826040517fa9fbf51f0000000000000000000000000000000000000000000000000000000081526004016120d791906127f3565b60405180910390fd5b811561214257838573ffffffffffffffffffffffffffffffffffffffff168273ffffffffffffffffffffffffffffffffffffffff167f8c5be1e5ebec7d5bd14f71427d1e84f3dd0314c0f7b2291e5b200ac8c7c3b92560405160405180910390a45b505b836004600085815260200190815260200160002060006101000a81548173ffffffffffffffffffffffffffffffffffffffff021916908373ffffffffffffffffffffffffffffffffffffffff16021790555050505050565b6121a78383836123cf565b61225b57600073ffffffffffffffffffffffffffffffffffffffff168373ffffffffffffffffffffffffffffffffffffffff160361221c57806040517f7e2732890000000000000000000000000000000000000000000000000000000081526004016122139190612ad0565b60405180910390fd5b81816040517f177e802f0000000000000000000000000000000000000000000000000000000081526004016122529291906137d5565b60405180910390fd5b505050565b61226a8383612490565b6122776000848484611cfe565b505050565b600080600090507a184f03e93ff9f4daa797ed6e38ed64bf6a1f01000000000000000083106122da577a184f03e93ff9f4daa797ed6e38ed64bf6a1f01000000000000000083816122d0576122cf6137a6565b5b0492506040810190505b6d04ee2d6d415b85acef81000000008310612317576d04ee2d6d415b85acef8100000000838161230d5761230c6137a6565b5b0492506020810190505b662386f26fc10000831061234657662386f26fc10000838161233c5761233b6137a6565b5b0492506010810190505b6305f5e100831061236f576305f5e1008381612365576123646137a6565b5b0492506008810190505b612710831061239457612710838161238a576123896137a6565b5b0492506004810190505b606483106123b757606483816123ad576123ac6137a6565b5b0492506002810190505b600a83106123c6576001810190505b80915050919050565b60008073ffffffffffffffffffffffffffffffffffffffff168373ffffffffffffffffffffffffffffffffffffffff161415801561248757508273ffffffffffffffffffffffffffffffffffffffff168473ffffffffffffffffffffffffffffffffffffffff161480612448575061244784846116f4565b5b8061248657508273ffffffffffffffffffffffffffffffffffffffff1661246e8361187a565b73ffffffffffffffffffffffffffffffffffffffff16145b5b90509392505050565b600073ffffffffffffffffffffffffffffffffffffffff168273ffffffffffffffffffffffffffffffffffffffff16036125025760006040517f64a0ae920000000000000000000000000000000000000000000000000000000081526004016124f991906127f3565b60405180910390fd5b6000612510838360006118d1565b9050600073ffffffffffffffffffffffffffffffffffffffff168173ffffffffffffffffffffffffffffffffffffffff16146125845760006040517f73c6ac6e00000000000000000000000000000000000000000000000000000000815260040161257b91906127f3565b60405180910390fd5b505050565b60405180610100016040528060008152602001606081526020016000815260200160008152602001600081526020016060815260200160608152602001606081525090565b6000604051905090565b600080fd5b600080fd5b60007fffffffff0000000000000000000000000000000000000000000000000000000082169050919050565b612617816125e2565b811461262257600080fd5b50565b6000813590506126348161260e565b92915050565b6000602082840312156126505761264f6125d8565b5b600061265e84828501612625565b91505092915050565b60008115159050919050565b61267c81612667565b82525050565b60006020820190506126976000830184612673565b92915050565b600081519050919050565b600082825260208201905092915050565b60005b838110156126d75780820151818401526020810190506126bc565b60008484015250505050565b6000601f19601f8301169050919050565b60006126ff8261269d565b61270981856126a8565b93506127198185602086016126b9565b612722816126e3565b840191505092915050565b6000602082019050818103600083015261274781846126f4565b905092915050565b6000819050919050565b6127628161274f565b811461276d57600080fd5b50565b60008135905061277f81612759565b92915050565b60006020828403121561279b5761279a6125d8565b5b60006127a984828501612770565b91505092915050565b600073ffffffffffffffffffffffffffffffffffffffff82169050919050565b60006127dd826127b2565b9050919050565b6127ed816127d2565b82525050565b600060208201905061280860008301846127e4565b92915050565b612817816127d2565b811461282257600080fd5b50565b6000813590506128348161280e565b92915050565b60008060408385031215612851576128506125d8565b5b600061285f85828601612825565b925050602061287085828601612770565b9150509250929050565b600080fd5b600080fd5b7f4e487b7100000000000000000000000000000000000000000000000000000000600052604160045260246000fd5b6128bc826126e3565b810181811067ffffffffffffffff821117156128db576128da612884565b5b80604052505050565b60006128ee6125ce565b90506128fa82826128b3565b919050565b600067ffffffffffffffff82111561291a57612919612884565b5b612923826126e3565b9050602081019050919050565b82818337600083830152505050565b600061295261294d846128ff565b6128e4565b90508281526020810184848401111561296e5761296d61287f565b5b612979848285612930565b509392505050565b600082601f8301126129965761299561287a565b5b81356129a684826020860161293f565b91505092915050565b600080600080600080600060e0888a0312156129ce576129cd6125d8565b5b600088013567ffffffffffffffff8111156129ec576129eb6125dd565b5b6129f88a828b01612981565b9750506020612a098a828b01612770565b9650506040612a1a8a828b01612770565b9550506060612a2b8a828b01612770565b945050608088013567ffffffffffffffff811115612a4c57612a4b6125dd565b5b612a588a828b01612981565b93505060a088013567ffffffffffffffff811115612a7957612a786125dd565b5b612a858a828b01612981565b92505060c088013567ffffffffffffffff811115612aa657612aa56125dd565b5b612ab28a828b01612981565b91505092959891949750929550565b612aca8161274f565b82525050565b6000602082019050612ae56000830184612ac1565b92915050565b600080600060608486031215612b0457612b036125d8565b5b6000612b1286828701612825565b9350506020612b2386828701612825565b9250506040612b3486828701612770565b9150509250925092565b600060208284031215612b5457612b536125d8565b5b6000612b6284828501612825565b91505092915050565b612b748161274f565b82525050565b600082825260208201905092915050565b6000612b968261269d565b612ba08185612b7a565b9350612bb08185602086016126b9565b612bb9816126e3565b840191505092915050565b600061010083016000830151612bdd6000860182612b6b565b5060208301518482036020860152612bf58282612b8b565b9150506040830151612c0a6040860182612b6b565b506060830151612c1d6060860182612b6b565b506080830151612c306080860182612b6b565b5060a083015184820360a0860152612c488282612b8b565b91505060c083015184820360c0860152612c628282612b8b565b91505060e083015184820360e0860152612c7c8282612b8b565b9150508091505092915050565b60006020820190508181036000830152612ca38184612bc4565b905092915050565b60008060408385031215612cc257612cc16125d8565b5b6000612cd085828601612770565b9250506020612ce185828601612825565b9150509250929050565b600061010082019050612d01600083018b612ac1565b8181036020830152612d13818a6126f4565b9050612d226040830189612ac1565b612d2f6060830188612ac1565b612d3c6080830187612ac1565b81810360a0830152612d4e81866126f4565b905081810360c0830152612d6281856126f4565b905081810360e0830152612d7681846126f4565b90509998505050505050505050565b612d8e81612667565b8114612d9957600080fd5b50565b600081359050612dab81612d85565b92915050565b60008060408385031215612dc857612dc76125d8565b5b6000612dd685828601612825565b9250506020612de785828601612d9c565b9150509250929050565b600067ffffffffffffffff821115612e0c57612e0b612884565b5b612e15826126e3565b9050602081019050919050565b6000612e35612e3084612df1565b6128e4565b905082815260208101848484011115612e5157612e5061287f565b5b612e5c848285612930565b509392505050565b600082601f830112612e7957612e7861287a565b5b8135612e89848260208601612e22565b91505092915050565b60008060008060808587031215612eac57612eab6125d8565b5b6000612eba87828801612825565b9450506020612ecb87828801612825565b9350506040612edc87828801612770565b925050606085013567ffffffffffffffff811115612efd57612efc6125dd565b5b612f0987828801612e64565b91505092959194509250565b60008060408385031215612f2c57612f2b6125d8565b5b6000612f3a85828601612825565b9250506020612f4b85828601612825565b9150509250929050565b7f4e487b7100000000000000000000000000000000000000000000000000000000600052602260045260246000fd5b60006002820490506001821680612f9c57607f821691505b602082108103612faf57612fae612f55565b5b50919050565b7f4f6e6c79206f776e65722063616e2063616c6c20746869732066756e6374696f60008201527f6e00000000000000000000000000000000000000000000000000000000000000602082015250565b60006130116021836126a8565b915061301c82612fb5565b604082019050919050565b6000602082019050818103600083015261304081613004565b9050919050565b7f4e487b7100000000000000000000000000000000000000000000000000000000600052601160045260246000fd5b60006130818261274f565b91507fffffffffffffffffffffffffffffffffffffffffffffffffffffffffffffffff82036130b3576130b2613047565b5b600182019050919050565b60008190508160005260206000209050919050565b60006020601f8301049050919050565b600082821b905092915050565b6000600883026131207fffffffffffffffffffffffffffffffffffffffffffffffffffffffffffffffff826130e3565b61312a86836130e3565b95508019841693508086168417925050509392505050565b6000819050919050565b600061316761316261315d8461274f565b613142565b61274f565b9050919050565b6000819050919050565b6131818361314c565b61319561318d8261316e565b8484546130f0565b825550505050565b600090565b6131aa61319d565b6131b5818484613178565b505050565b5b818110156131d9576131ce6000826131a2565b6001810190506131bb565b5050565b601f82111561321e576131ef816130be565b6131f8846130d3565b81016020851015613207578190505b61321b613213856130d3565b8301826131ba565b50505b505050565b600082821c905092915050565b600061324160001984600802613223565b1980831691505092915050565b600061325a8383613230565b9150826002028217905092915050565b6132738261269d565b67ffffffffffffffff81111561328c5761328b612884565b5b6132968254612f84565b6132a18282856131dd565b600060209050601f8311600181146132d457600084156132c2578287015190505b6132cc858261324e565b865550613334565b601f1984166132e2866130be565b60005b8281101561330a578489015182556001820191506020850194506020810190506132e5565b868310156133275784890151613323601f891682613230565b8355505b6001600288020188555050505b505050505050565b600060608201905061335160008301866127e4565b61335e6020830185612ac1565b61336b60408301846127e4565b949350505050565b600081905092915050565b50565b600061338e600083613373565b91506133998261337e565b600082019050919050565b60006133af82613381565b9150819050919050565b7f4576656e742049442053616c6168000000000000000000000000000000000000600082015250565b60006133ef600e836126a8565b91506133fa826133b9565b602082019050919050565b6000602082019050818103600083015261341e816133e2565b9050919050565b7f4576656e7420746964616b206164610000000000000000000000000000000000600082015250565b600061345b600f836126a8565b915061346682613425565b602082019050919050565b6000602082019050818103600083015261348a8161344e565b9050919050565b7f416e64612062656c756d206d656d62656c692074696b657420756e74756b206160008201527f6361726120696e69000000000000000000000000000000000000000000000000602082015250565b60006134ed6028836126a8565b91506134f882613491565b604082019050919050565b6000602082019050818103600083015261351c816134e0565b9050919050565b600061352e8261274f565b91506135398361274f565b925082820190508082111561355157613550613047565b5b92915050565b7f50656d6261796172616e20746964616b206d656e63756b757069000000000000600082015250565b600061358d601a836126a8565b915061359882613557565b602082019050919050565b600060208201905081810360008301526135bc81613580565b9050919050565b7f54696b6574207375646168206861626973000000000000000000000000000000600082015250565b60006135f96011836126a8565b9150613604826135c3565b602082019050919050565b60006020820190508181036000830152613628816135ec565b9050919050565b600061363a8261274f565b91506136458361274f565b925082820390508181111561365d5761365c613047565b5b92915050565b600081905092915050565b60006136798261269d565b6136838185613663565b93506136938185602086016126b9565b80840191505092915050565b60006136ab828561366e565b91506136b7828461366e565b91508190509392505050565b600081519050919050565b600082825260208201905092915050565b60006136ea826136c3565b6136f481856136ce565b93506137048185602086016126b9565b61370d816126e3565b840191505092915050565b600060808201905061372d60008301876127e4565b61373a60208301866127e4565b6137476040830185612ac1565b818103606083015261375981846136df565b905095945050505050565b6000815190506137738161260e565b92915050565b60006020828403121561378f5761378e6125d8565b5b600061379d84828501613764565b91505092915050565b7f4e487b7100000000000000000000000000000000000000000000000000000000600052601260045260246000fd5b60006040820190506137ea60008301856127e4565b6137f76020830184612ac1565b939250505056fea2646970667358221220d1cefeee7b21820527867de8a62299633f61abe8be38d164c8f753531f71244864736f6c63430008140033",
  "linkReferences": {},
  "deployedLinkReferences": {}
}