{
  "_format": "hh-sol-artifact-1",
  "contractName": "CaloToken",
  "sourceName": "contracts/CaloToken.sol",
  "abi": [
    {
      "inputs": [
        {
          "internalType": "string",
          "name": "_name",
          "type": "string"
        },
        {
          "internalType": "string",
          "name": "_symbol",
          "type": "string"
        }
      ],
      "stateMutability": "nonpayable",
      "type": "constructor"
    },
    {
      "inputs": [
        {
          "internalType": "address",
          "name": "sender",
          "type": "address"
        },
        {
          "internalType": "uint256",
          "name": "tokenId",
          "type": "uint256"
        },
        {
          "internalType": "address",
          "name": "owner",
          "type": "address"
        }
      ],
      "name": "ERC721IncorrectOwner",
      "type": "error"
    },
    {
      "inputs": [
        {
          "internalType": "address",
          "name": "operator",
          "type": "address"
        },
        {
          "internalType": "uint256",
          "name": "tokenId",
          "type": "uint256"
        }
      ],
      "name": "ERC721InsufficientApproval",
      "type": "error"
    },
    {
      "inputs": [
        {
          "internalType": "address",
          "name": "approver",
          "type": "address"
        }
      ],
      "name": "ERC721InvalidApprover",
      "type": "error"
    },
    {
      "inputs": [
        {
          "internalType": "address",
          "name": "operator",
          "type": "address"
        }
      ],
      "name": "ERC721InvalidOperator",
      "type": "error"
    },
    {
      "inputs": [
        {
          "internalType": "address",
          "name": "owner",
          "type": "address"
        }
      ],
      "name": "ERC721InvalidOwner",
      "type": "error"
    },
    {
      "inputs": [
        {
          "internalType": "address",
          "name": "receiver",
          "type": "address"
        }
      ],
      "name": "ERC721InvalidReceiver",
      "type": "error"
    },
    {
      "inputs": [
        {
          "internalType": "address",
          "name": "sender",
          "type": "address"
        }
      ],
      "name": "ERC721InvalidSender",
      "type": "error"
    },
    {
      "inputs": [
        {
          "internalType": "uint256",
          "name": "tokenId",
          "type": "uint256"
        }
      ],
      "name": "ERC721NonexistentToken",
      "type": "error"
    },
    {
      "anonymous": false,
      "inputs": [
        {
          "indexed": true,
          "internalType": "address",
          "name": "owner",
          "type": "address"
        },
        {
          "indexed": true,
          "internalType": "address",
          "name": "approved",
          "type": "address"
        },
        {
          "indexed": true,
          "internalType": "uint256",
          "name": "tokenId",
          "type": "uint256"
        }
      ],
      "name": "Approval",
      "type": "event"
    },
    {
      "anonymous": false,
      "inputs": [
        {
          "indexed": true,
          "internalType": "address",
          "name": "owner",
          "type": "address"
        },
        {
          "indexed": true,
          "internalType": "address",
          "name": "operator",
          "type": "address"
        },
        {
          "indexed": false,
          "internalType": "bool",
          "name": "approved",
          "type": "bool"
        }
      ],
      "name": "ApprovalForAll",
      "type": "event"
    },
    {
      "anonymous": false,
      "inputs": [
        {
          "indexed": true,
          "internalType": "address",
          "name": "from",
          "type": "address"
        },
        {
          "indexed": true,
          "internalType": "address",
          "name": "to",
          "type": "address"
        },
        {
          "indexed": true,
          "internalType": "uint256",
          "name": "tokenId",
          "type": "uint256"
        }
      ],
      "name": "Transfer",
      "type": "event"
    },
    {
      "inputs": [
        {
          "internalType": "address",
          "name": "to",
          "type": "address"
        },
        {
          "internalType": "uint256",
          "name": "tokenId",
          "type": "uint256"
        }
      ],
      "name": "approve",
      "outputs": [],
      "stateMutability": "nonpayable",
      "type": "function"
    },
    {
      "inputs": [
        {
          "internalType": "address",
          "name": "owner",
          "type": "address"
        }
      ],
      "name": "balanceOf",
      "outputs": [
        {
          "internalType": "uint256",
          "name": "",
          "type": "uint256"
        }
      ],
      "stateMutability": "view",
      "type": "function"
    },
    {
      "inputs": [
        {
          "internalType": "uint256",
          "name": "",
          "type": "uint256"
        }
      ],
      "name": "caloevent",
      "outputs": [
        {
          "internalType": "uint256",
          "name": "id",
          "type": "uint256"
        },
        {
          "internalType": "string",
          "name": "name",
          "type": "string"
        },
        {
          "internalType": "uint256",
          "name": "cost",
          "type": "uint256"
        },
        {
          "internalType": "uint256",
          "name": "tickets",
          "type": "uint256"
        },
        {
          "internalType": "uint256",
          "name": "maxTickets",
          "type": "uint256"
        },
        {
          "internalType": "string",
          "name": "date",
          "type": "string"
        },
        {
          "internalType": "string",
          "name": "time",
          "type": "string"
        },
        {
          "internalType": "string",
          "name": "location",
          "type": "string"
        },
        {
          "internalType": "string",
          "name": "slug",
          "type": "string"
        },
        {
          "internalType": "string",
          "name": "vendorAddress",
          "type": "string"
        }
      ],
      "stateMutability": "view",
      "type": "function"
    },
    {
      "inputs": [
        {
          "internalType": "uint256",
          "name": "_id",
          "type": "uint256"
        }
      ],
      "name": "cancel",
      "outputs": [],
      "stateMutability": "nonpayable",
      "type": "function"
    },
    {
      "inputs": [
        {
          "internalType": "uint256",
          "name": "tokenId",
          "type": "uint256"
        }
      ],
      "name": "getApproved",
      "outputs": [
        {
          "internalType": "address",
          "name": "",
          "type": "address"
        }
      ],
      "stateMutability": "view",
      "type": "function"
    },
    {
      "inputs": [
        {
          "internalType": "uint256",
          "name": "_id",
          "type": "uint256"
        }
      ],
      "name": "getCaloEvent",
      "outputs": [
        {
          "components": [
            {
              "internalType": "uint256",
              "name": "id",
              "type": "uint256"
            },
            {
              "internalType": "string",
              "name": "name",
              "type": "string"
            },
            {
              "internalType": "uint256",
              "name": "cost",
              "type": "uint256"
            },
            {
              "internalType": "uint256",
              "name": "tickets",
              "type": "uint256"
            },
            {
              "internalType": "uint256",
              "name": "maxTickets",
              "type": "uint256"
            },
            {
              "internalType": "string",
              "name": "date",
              "type": "string"
            },
            {
              "internalType": "string",
              "name": "time",
              "type": "string"
            },
            {
              "internalType": "string",
              "name": "location",
              "type": "string"
            },
            {
              "internalType": "string",
              "name": "slug",
              "type": "string"
            },
            {
              "internalType": "string",
              "name": "vendorAddress",
              "type": "string"
            }
          ],
          "internalType": "struct CaloToken.CaloEvent",
          "name": "",
          "type": "tuple"
        }
      ],
      "stateMutability": "view",
      "type": "function"
    },
    {
      "inputs": [
        {
          "internalType": "uint256",
          "name": "",
          "type": "uint256"
        },
        {
          "internalType": "address",
          "name": "",
          "type": "address"
        }
      ],
      "name": "hasBought",
      "outputs": [
        {
          "internalType": "bool",
          "name": "",
          "type": "bool"
        }
      ],
      "stateMutability": "view",
      "type": "function"
    },
    {
      "inputs": [
        {
          "internalType": "address",
          "name": "owner",
          "type": "address"
        },
        {
          "internalType": "address",
          "name": "operator",
          "type": "address"
        }
      ],
      "name": "isApprovedForAll",
      "outputs": [
        {
          "internalType": "bool",
          "name": "",
          "type": "bool"
        }
      ],
      "stateMutability": "view",
      "type": "function"
    },
    {
      "inputs": [
        {
          "internalType": "string",
          "name": "_name",
          "type": "string"
        },
        {
          "internalType": "uint256",
          "name": "_cost",
          "type": "uint256"
        },
        {
          "internalType": "uint256",
          "name": "_tickets",
          "type": "uint256"
        },
        {
          "internalType": "uint256",
          "name": "_maxTickets",
          "type": "uint256"
        },
        {
          "internalType": "string",
          "name": "_date",
          "type": "string"
        },
        {
          "internalType": "string",
          "name": "_time",
          "type": "string"
        },
        {
          "internalType": "string",
          "name": "_location",
          "type": "string"
        },
        {
          "internalType": "string",
          "name": "_slug",
          "type": "string"
        },
        {
          "internalType": "string",
          "name": "_vendorAddress",
          "type": "string"
        }
      ],
      "name": "list",
      "outputs": [],
      "stateMutability": "nonpayable",
      "type": "function"
    },
    {
      "inputs": [
        {
          "internalType": "uint256",
          "name": "_id",
          "type": "uint256"
        }
      ],
      "name": "mint",
      "outputs": [],
      "stateMutability": "payable",
      "type": "function"
    },
    {
      "inputs": [],
      "name": "name",
      "outputs": [
        {
          "internalType": "string",
          "name": "",
          "type": "string"
        }
      ],
      "stateMutability": "view",
      "type": "function"
    },
    {
      "inputs": [],
      "name": "owner",
      "outputs": [
        {
          "internalType": "address",
          "name": "",
          "type": "address"
        }
      ],
      "stateMutability": "view",
      "type": "function"
    },
    {
      "inputs": [
        {
          "internalType": "uint256",
          "name": "tokenId",
          "type": "uint256"
        }
      ],
      "name": "ownerOf",
      "outputs": [
        {
          "internalType": "address",
          "name": "",
          "type": "address"
        }
      ],
      "stateMutability": "view",
      "type": "function"
    },
    {
      "inputs": [
        {
          "internalType": "address",
          "name": "from",
          "type": "address"
        },
        {
          "internalType": "address",
          "name": "to",
          "type": "address"
        },
        {
          "internalType": "uint256",
          "name": "tokenId",
          "type": "uint256"
        }
      ],
      "name": "safeTransferFrom",
      "outputs": [],
      "stateMutability": "nonpayable",
      "type": "function"
    },
    {
      "inputs": [
        {
          "internalType": "address",
          "name": "from",
          "type": "address"
        },
        {
          "internalType": "address",
          "name": "to",
          "type": "address"
        },
        {
          "internalType": "uint256",
          "name": "tokenId",
          "type": "uint256"
        },
        {
          "internalType": "bytes",
          "name": "data",
          "type": "bytes"
        }
      ],
      "name": "safeTransferFrom",
      "outputs": [],
      "stateMutability": "nonpayable",
      "type": "function"
    },
    {
      "inputs": [
        {
          "internalType": "address",
          "name": "operator",
          "type": "address"
        },
        {
          "internalType": "bool",
          "name": "approved",
          "type": "bool"
        }
      ],
      "name": "setApprovalForAll",
      "outputs": [],
      "stateMutability": "nonpayable",
      "type": "function"
    },
    {
      "inputs": [
        {
          "internalType": "bytes4",
          "name": "interfaceId",
          "type": "bytes4"
        }
      ],
      "name": "supportsInterface",
      "outputs": [
        {
          "internalType": "bool",
          "name": "",
          "type": "bool"
        }
      ],
      "stateMutability": "view",
      "type": "function"
    },
    {
      "inputs": [],
      "name": "symbol",
      "outputs": [
        {
          "internalType": "string",
          "name": "",
          "type": "string"
        }
      ],
      "stateMutability": "view",
      "type": "function"
    },
    {
      "inputs": [
        {
          "internalType": "uint256",
          "name": "tokenId",
          "type": "uint256"
        }
      ],
      "name": "tokenURI",
      "outputs": [
        {
          "internalType": "string",
          "name": "",
          "type": "string"
        }
      ],
      "stateMutability": "view",
      "type": "function"
    },
    {
      "inputs": [],
      "name": "totalCaloEvent",
      "outputs": [
        {
          "internalType": "uint256",
          "name": "",
          "type": "uint256"
        }
      ],
      "stateMutability": "view",
      "type": "function"
    },
    {
      "inputs": [],
      "name": "totalSupply",
      "outputs": [
        {
          "internalType": "uint256",
          "name": "",
          "type": "uint256"
        }
      ],
      "stateMutability": "view",
      "type": "function"
    },
    {
      "inputs": [
        {
          "internalType": "address",
          "name": "from",
          "type": "address"
        },
        {
          "internalType": "address",
          "name": "to",
          "type": "address"
        },
        {
          "internalType": "uint256",
          "name": "tokenId",
          "type": "uint256"
        }
      ],
      "name": "transferFrom",
      "outputs": [],
      "stateMutability": "nonpayable",
      "type": "function"
    },
    {
      "inputs": [],
      "name": "withdraw",
      "outputs": [],
      "stateMutability": "nonpayable",
      "type": "function"
    }
  ],
  "bytecode": "0x60806040523480156200001157600080fd5b50604051620041863803806200418683398181016040528101906200003791906200023b565b818181600090816200004a91906200050b565b5080600190816200005c91906200050b565b50505033600660006101000a81548173ffffffffffffffffffffffffffffffffffffffff021916908373ffffffffffffffffffffffffffffffffffffffff1602179055505050620005f2565b6000604051905090565b600080fd5b600080fd5b600080fd5b600080fd5b6000601f19601f8301169050919050565b7f4e487b7100000000000000000000000000000000000000000000000000000000600052604160045260246000fd5b6200011182620000c6565b810181811067ffffffffffffffff82111715620001335762000132620000d7565b5b80604052505050565b600062000148620000a8565b905062000156828262000106565b919050565b600067ffffffffffffffff821115620001795762000178620000d7565b5b6200018482620000c6565b9050602081019050919050565b60005b83811015620001b157808201518184015260208101905062000194565b60008484015250505050565b6000620001d4620001ce846200015b565b6200013c565b905082815260208101848484011115620001f357620001f2620000c1565b5b6200020084828562000191565b509392505050565b600082601f83011262000220576200021f620000bc565b5b815162000232848260208601620001bd565b91505092915050565b60008060408385031215620002555762000254620000b2565b5b600083015167ffffffffffffffff811115620002765762000275620000b7565b5b620002848582860162000208565b925050602083015167ffffffffffffffff811115620002a857620002a7620000b7565b5b620002b68582860162000208565b9150509250929050565b600081519050919050565b7f4e487b7100000000000000000000000000000000000000000000000000000000600052602260045260246000fd5b600060028204905060018216806200031357607f821691505b602082108103620003295762000328620002cb565b5b50919050565b60008190508160005260206000209050919050565b60006020601f8301049050919050565b600082821b905092915050565b600060088302620003937fffffffffffffffffffffffffffffffffffffffffffffffffffffffffffffffff8262000354565b6200039f868362000354565b95508019841693508086168417925050509392505050565b6000819050919050565b6000819050919050565b6000620003ec620003e6620003e084620003b7565b620003c1565b620003b7565b9050919050565b6000819050919050565b6200040883620003cb565b620004206200041782620003f3565b84845462000361565b825550505050565b600090565b6200043762000428565b62000444818484620003fd565b505050565b5b818110156200046c57620004606000826200042d565b6001810190506200044a565b5050565b601f821115620004bb5762000485816200032f565b620004908462000344565b81016020851015620004a0578190505b620004b8620004af8562000344565b83018262000449565b50505b505050565b600082821c905092915050565b6000620004e060001984600802620004c0565b1980831691505092915050565b6000620004fb8383620004cd565b9150826002028217905092915050565b6200051682620002c0565b67ffffffffffffffff811115620005325762000531620000d7565b5b6200053e8254620002fa565b6200054b82828562000470565b600060209050601f8311600181146200058357600084156200056e578287015190505b6200057a8582620004ed565b865550620005ea565b601f19841662000593866200032f565b60005b82811015620005bd5784890151825560018201915060208501945060208101905062000596565b86831015620005dd5784890151620005d9601f891682620004cd565b8355505b6001600288020188555050505b505050505050565b613b8480620006026000396000f3fe6080604052600436106101405760003560e01c80638010265b116100b6578063a0712d681161006f578063a0712d681461048b578063a22cb465146104a7578063b88d4fde146104d0578063bcd08c5b146104f9578063c87b56dd14610522578063e985e9c51461055f57610140565b80638010265b1461034a5780638da5cb5b1461037557806395d89b41146103a057806399035674146103cb5780639cb04aef146104085780639cf0b5f51461044557610140565b806323b872dd1161010857806323b872dd1461023e5780633ccfd60b1461026757806340e58ee51461027e57806342842e0e146102a75780636352211e146102d057806370a082311461030d57610140565b806301ffc9a71461014557806306fdde0314610182578063081812fc146101ad578063095ea7b3146101ea57806318160ddd14610213575b600080fd5b34801561015157600080fd5b5061016c600480360381019061016791906128c6565b61059c565b604051610179919061290e565b60405180910390f35b34801561018e57600080fd5b5061019761067e565b6040516101a491906129b9565b60405180910390f35b3480156101b957600080fd5b506101d460048036038101906101cf9190612a11565b610710565b6040516101e19190612a7f565b60405180910390f35b3480156101f657600080fd5b50610211600480360381019061020c9190612ac6565b61072c565b005b34801561021f57600080fd5b50610228610742565b6040516102359190612b15565b60405180910390f35b34801561024a57600080fd5b5061026560048036038101906102609190612b30565b610748565b005b34801561027357600080fd5b5061027c61084a565b005b34801561028a57600080fd5b506102a560048036038101906102a09190612a11565b610975565b005b3480156102b357600080fd5b506102ce60048036038101906102c99190612b30565b610bfe565b005b3480156102dc57600080fd5b506102f760048036038101906102f29190612a11565b610c1e565b6040516103049190612a7f565b60405180910390f35b34801561031957600080fd5b50610334600480360381019061032f9190612b83565b610c30565b6040516103419190612b15565b60405180910390f35b34801561035657600080fd5b5061035f610cea565b60405161036c9190612b15565b60405180910390f35b34801561038157600080fd5b5061038a610cf0565b6040516103979190612a7f565b60405180910390f35b3480156103ac57600080fd5b506103b5610d16565b6040516103c291906129b9565b60405180910390f35b3480156103d757600080fd5b506103f260048036038101906103ed9190612a11565b610da8565b6040516103ff9190612d06565b60405180910390f35b34801561041457600080fd5b5061042f600480360381019061042a9190612d28565b61116a565b60405161043c919061290e565b60405180910390f35b34801561045157600080fd5b5061046c60048036038101906104679190612a11565b611199565b6040516104829a99989796959493929190612d68565b60405180910390f35b6104a560048036038101906104a09190612a11565b61151d565b005b3480156104b357600080fd5b506104ce60048036038101906104c99190612e5a565b611715565b005b3480156104dc57600080fd5b506104f760048036038101906104f29190612fcf565b61172b565b005b34801561050557600080fd5b50610520600480360381019061051b91906130f3565b611748565b005b34801561052e57600080fd5b5061054960048036038101906105449190612a11565b611909565b60405161055691906129b9565b60405180910390f35b34801561056b57600080fd5b5061058660048036038101906105819190613265565b611972565b604051610593919061290e565b60405180910390f35b60007f80ac58cd000000000000000000000000000000000000000000000000000000007bffffffffffffffffffffffffffffffffffffffffffffffffffffffff1916827bffffffffffffffffffffffffffffffffffffffffffffffffffffffff1916148061066757507f5b5e139f000000000000000000000000000000000000000000000000000000007bffffffffffffffffffffffffffffffffffffffffffffffffffffffff1916827bffffffffffffffffffffffffffffffffffffffffffffffffffffffff1916145b80610677575061067682611a06565b5b9050919050565b60606000805461068d906132d4565b80601f01602080910402602001604051908101604052809291908181526020018280546106b9906132d4565b80156107065780601f106106db57610100808354040283529160200191610706565b820191906000526020600020905b8154815290600101906020018083116106e957829003601f168201915b5050505050905090565b600061071b82611a70565b5061072582611af8565b9050919050565b61073e8282610739611b35565b611b3d565b5050565b60085481565b600073ffffffffffffffffffffffffffffffffffffffff168273ffffffffffffffffffffffffffffffffffffffff16036107ba5760006040517f64a0ae920000000000000000000000000000000000000000000000000000000081526004016107b19190612a7f565b60405180910390fd5b60006107ce83836107c9611b35565b611b4f565b90508373ffffffffffffffffffffffffffffffffffffffff168173ffffffffffffffffffffffffffffffffffffffff1614610844578382826040517f64283d7b00000000000000000000000000000000000000000000000000000000815260040161083b93929190613305565b60405180910390fd5b50505050565b600660009054906101000a900473ffffffffffffffffffffffffffffffffffffffff1673ffffffffffffffffffffffffffffffffffffffff163373ffffffffffffffffffffffffffffffffffffffff16146108da576040517f08c379a00000000000000000000000000000000000000000000000000000000081526004016108d1906133ae565b60405180910390fd5b6000600660009054906101000a900473ffffffffffffffffffffffffffffffffffffffff1673ffffffffffffffffffffffffffffffffffffffff1647604051610922906133ff565b60006040518083038185875af1925050503d806000811461095f576040519150601f19603f3d011682016040523d82523d6000602084013e610964565b606091505b505090508061097257600080fd5b50565b600081036109b8576040517f08c379a00000000000000000000000000000000000000000000000000000000081526004016109af90613460565b60405180910390fd5b6007548111156109fd576040517f08c379a00000000000000000000000000000000000000000000000000000000081526004016109f4906134cc565b60405180910390fd5b600a600082815260200190815260200160002060003373ffffffffffffffffffffffffffffffffffffffff1673ffffffffffffffffffffffffffffffffffffffff16815260200190815260200160002060009054906101000a900460ff16610a9a576040517f08c379a0000000000000000000000000000000000000000000000000000000008152600401610a919061355e565b60405180910390fd5b6001600960008381526020019081526020016000206003016000828254610ac191906135ad565b925050819055506000600a600083815260200190815260200160002060003373ffffffffffffffffffffffffffffffffffffffff1673ffffffffffffffffffffffffffffffffffffffff16815260200190815260200160002060006101000a81548160ff0219169083151502179055506000600190505b6008548111610b9d573373ffffffffffffffffffffffffffffffffffffffff16610b6182610c1e565b73ffffffffffffffffffffffffffffffffffffffff1603610b8a57610b8581611d69565b610b9d565b8080610b95906135e1565b915050610b38565b503373ffffffffffffffffffffffffffffffffffffffff166108fc60096000848152602001908152602001600020600201549081150290604051600060405180830381858888f19350505050158015610bfa573d6000803e3d6000fd5b5050565b610c198383836040518060200160405280600081525061172b565b505050565b6000610c2982611a70565b9050919050565b60008073ffffffffffffffffffffffffffffffffffffffff168273ffffffffffffffffffffffffffffffffffffffff1603610ca35760006040517f89c62b64000000000000000000000000000000000000000000000000000000008152600401610c9a9190612a7f565b60405180910390fd5b600360008373ffffffffffffffffffffffffffffffffffffffff1673ffffffffffffffffffffffffffffffffffffffff168152602001908152602001600020549050919050565b60075481565b600660009054906101000a900473ffffffffffffffffffffffffffffffffffffffff1681565b606060018054610d25906132d4565b80601f0160208091040260200160405190810160405280929190818152602001828054610d51906132d4565b8015610d9e5780601f10610d7357610100808354040283529160200191610d9e565b820191906000526020600020905b815481529060010190602001808311610d8157829003601f168201915b5050505050905090565b610db0612807565b600960008381526020019081526020016000206040518061014001604052908160008201548152602001600182018054610de9906132d4565b80601f0160208091040260200160405190810160405280929190818152602001828054610e15906132d4565b8015610e625780601f10610e3757610100808354040283529160200191610e62565b820191906000526020600020905b815481529060010190602001808311610e4557829003601f168201915b50505050508152602001600282015481526020016003820154815260200160048201548152602001600582018054610e99906132d4565b80601f0160208091040260200160405190810160405280929190818152602001828054610ec5906132d4565b8015610f125780601f10610ee757610100808354040283529160200191610f12565b820191906000526020600020905b815481529060010190602001808311610ef557829003601f168201915b50505050508152602001600682018054610f2b906132d4565b80601f0160208091040260200160405190810160405280929190818152602001828054610f57906132d4565b8015610fa45780601f10610f7957610100808354040283529160200191610fa4565b820191906000526020600020905b815481529060010190602001808311610f8757829003601f168201915b50505050508152602001600782018054610fbd906132d4565b80601f0160208091040260200160405190810160405280929190818152602001828054610fe9906132d4565b80156110365780601f1061100b57610100808354040283529160200191611036565b820191906000526020600020905b81548152906001019060200180831161101957829003601f168201915b5050505050815260200160088201805461104f906132d4565b80601f016020809104026020016040519081016040528092919081815260200182805461107b906132d4565b80156110c85780601f1061109d576101008083540402835291602001916110c8565b820191906000526020600020905b8154815290600101906020018083116110ab57829003601f168201915b505050505081526020016009820180546110e1906132d4565b80601f016020809104026020016040519081016040528092919081815260200182805461110d906132d4565b801561115a5780601f1061112f5761010080835404028352916020019161115a565b820191906000526020600020905b81548152906001019060200180831161113d57829003601f168201915b5050505050815250509050919050565b600a6020528160005260406000206020528060005260406000206000915091509054906101000a900460ff1681565b60096020528060005260406000206000915090508060000154908060010180546111c2906132d4565b80601f01602080910402602001604051908101604052809291908181526020018280546111ee906132d4565b801561123b5780601f106112105761010080835404028352916020019161123b565b820191906000526020600020905b81548152906001019060200180831161121e57829003601f168201915b505050505090806002015490806003015490806004015490806005018054611262906132d4565b80601f016020809104026020016040519081016040528092919081815260200182805461128e906132d4565b80156112db5780601f106112b0576101008083540402835291602001916112db565b820191906000526020600020905b8154815290600101906020018083116112be57829003601f168201915b5050505050908060060180546112f0906132d4565b80601f016020809104026020016040519081016040528092919081815260200182805461131c906132d4565b80156113695780601f1061133e57610100808354040283529160200191611369565b820191906000526020600020905b81548152906001019060200180831161134c57829003601f168201915b50505050509080600701805461137e906132d4565b80601f01602080910402602001604051908101604052809291908181526020018280546113aa906132d4565b80156113f75780601f106113cc576101008083540402835291602001916113f7565b820191906000526020600020905b8154815290600101906020018083116113da57829003601f168201915b50505050509080600801805461140c906132d4565b80601f0160208091040260200160405190810160405280929190818152602001828054611438906132d4565b80156114855780601f1061145a57610100808354040283529160200191611485565b820191906000526020600020905b81548152906001019060200180831161146857829003601f168201915b50505050509080600901805461149a906132d4565b80601f01602080910402602001604051908101604052809291908181526020018280546114c6906132d4565b80156115135780601f106114e857610100808354040283529160200191611513565b820191906000526020600020905b8154815290600101906020018083116114f657829003601f168201915b505050505090508a565b60008103611560576040517f08c379a000000000000000000000000000000000000000000000000000000000815260040161155790613460565b60405180910390fd5b6007548111156115a5576040517f08c379a000000000000000000000000000000000000000000000000000000000815260040161159c906134cc565b60405180910390fd5b60096000828152602001908152602001600020600201543410156115fe576040517f08c379a00000000000000000000000000000000000000000000000000000000081526004016115f590613675565b60405180910390fd5b6000600960008381526020019081526020016000206003015411611657576040517f08c379a000000000000000000000000000000000000000000000000000000000815260040161164e906136e1565b60405180910390fd5b600160096000838152602001908152602001600020600301600082825461167e9190613701565b925050819055506001600a600083815260200190815260200160002060003373ffffffffffffffffffffffffffffffffffffffff1673ffffffffffffffffffffffffffffffffffffffff16815260200190815260200160002060006101000a81548160ff02191690831515021790555060086000815480929190611701906135e1565b919050555061171233600854611def565b50565b611727611720611b35565b8383611e0d565b5050565b611736848484610748565b61174284848484611f7c565b50505050565b600660009054906101000a900473ffffffffffffffffffffffffffffffffffffffff1673ffffffffffffffffffffffffffffffffffffffff163373ffffffffffffffffffffffffffffffffffffffff16146117d8576040517f08c379a00000000000000000000000000000000000000000000000000000000081526004016117cf906133ae565b60405180910390fd5b600760008154809291906117eb906135e1565b919050555060405180610140016040528060075481526020018a81526020018981526020018881526020018781526020018681526020018581526020018481526020018381526020018281525060096000600754815260200190815260200160002060008201518160000155602082015181600101908161186c91906138e1565b5060408201518160020155606082015181600301556080820151816004015560a08201518160050190816118a091906138e1565b5060c08201518160060190816118b691906138e1565b5060e08201518160070190816118cc91906138e1565b506101008201518160080190816118e391906138e1565b506101208201518160090190816118fa91906138e1565b50905050505050505050505050565b606061191482611a70565b50600061191f612133565b9050600081511161193f576040518060200160405280600081525061196a565b806119498461214a565b60405160200161195a9291906139ef565b6040516020818303038152906040525b915050919050565b6000600560008473ffffffffffffffffffffffffffffffffffffffff1673ffffffffffffffffffffffffffffffffffffffff16815260200190815260200160002060008373ffffffffffffffffffffffffffffffffffffffff1673ffffffffffffffffffffffffffffffffffffffff16815260200190815260200160002060009054906101000a900460ff16905092915050565b60007f01ffc9a7000000000000000000000000000000000000000000000000000000007bffffffffffffffffffffffffffffffffffffffffffffffffffffffff1916827bffffffffffffffffffffffffffffffffffffffffffffffffffffffff1916149050919050565b600080611a7c83612218565b9050600073ffffffffffffffffffffffffffffffffffffffff168173ffffffffffffffffffffffffffffffffffffffff1603611aef57826040517f7e273289000000000000000000000000000000000000000000000000000000008152600401611ae69190612b15565b60405180910390fd5b80915050919050565b60006004600083815260200190815260200160002060009054906101000a900473ffffffffffffffffffffffffffffffffffffffff169050919050565b600033905090565b611b4a8383836001612255565b505050565b600080611b5b84612218565b9050600073ffffffffffffffffffffffffffffffffffffffff168373ffffffffffffffffffffffffffffffffffffffff1614611b9d57611b9c81848661241a565b5b600073ffffffffffffffffffffffffffffffffffffffff168173ffffffffffffffffffffffffffffffffffffffff1614611c2e57611bdf600085600080612255565b6001600360008373ffffffffffffffffffffffffffffffffffffffff1673ffffffffffffffffffffffffffffffffffffffff168152602001908152602001600020600082825403925050819055505b600073ffffffffffffffffffffffffffffffffffffffff168573ffffffffffffffffffffffffffffffffffffffff1614611cb1576001600360008773ffffffffffffffffffffffffffffffffffffffff1673ffffffffffffffffffffffffffffffffffffffff168152602001908152602001600020600082825401925050819055505b846002600086815260200190815260200160002060006101000a81548173ffffffffffffffffffffffffffffffffffffffff021916908373ffffffffffffffffffffffffffffffffffffffff160217905550838573ffffffffffffffffffffffffffffffffffffffff168273ffffffffffffffffffffffffffffffffffffffff167fddf252ad1be2c89b69c2b068fc378daa952ba7f163c4a11628f55a4df523b3ef60405160405180910390a4809150509392505050565b6000611d786000836000611b4f565b9050600073ffffffffffffffffffffffffffffffffffffffff168173ffffffffffffffffffffffffffffffffffffffff1603611deb57816040517f7e273289000000000000000000000000000000000000000000000000000000008152600401611de29190612b15565b60405180910390fd5b5050565b611e098282604051806020016040528060008152506124de565b5050565b600073ffffffffffffffffffffffffffffffffffffffff168273ffffffffffffffffffffffffffffffffffffffff1603611e7e57816040517f5b08ba18000000000000000000000000000000000000000000000000000000008152600401611e759190612a7f565b60405180910390fd5b80600560008573ffffffffffffffffffffffffffffffffffffffff1673ffffffffffffffffffffffffffffffffffffffff16815260200190815260200160002060008473ffffffffffffffffffffffffffffffffffffffff1673ffffffffffffffffffffffffffffffffffffffff16815260200190815260200160002060006101000a81548160ff0219169083151502179055508173ffffffffffffffffffffffffffffffffffffffff168373ffffffffffffffffffffffffffffffffffffffff167f17307eab39ab6107e8899845ad3d59bd9653f200f220920489ca2b5937696c3183604051611f6f919061290e565b60405180910390a3505050565b60008373ffffffffffffffffffffffffffffffffffffffff163b111561212d578273ffffffffffffffffffffffffffffffffffffffff1663150b7a02611fc0611b35565b8685856040518563ffffffff1660e01b8152600401611fe29493929190613a68565b6020604051808303816000875af192505050801561201e57506040513d601f19601f8201168201806040525081019061201b9190613ac9565b60015b6120a2573d806000811461204e576040519150601f19603f3d011682016040523d82523d6000602084013e612053565b606091505b50600081510361209a57836040517f64a0ae920000000000000000000000000000000000000000000000000000000081526004016120919190612a7f565b60405180910390fd5b805181602001fd5b63150b7a0260e01b7bffffffffffffffffffffffffffffffffffffffffffffffffffffffff1916817bffffffffffffffffffffffffffffffffffffffffffffffffffffffff19161461212b57836040517f64a0ae920000000000000000000000000000000000000000000000000000000081526004016121229190612a7f565b60405180910390fd5b505b50505050565b606060405180602001604052806000815250905090565b606060006001612159846124fa565b01905060008167ffffffffffffffff81111561217857612177612ea4565b5b6040519080825280601f01601f1916602001820160405280156121aa5781602001600182028036833780820191505090505b509050600082602001820190505b60011561220d578080600190039150507f3031323334353637383961626364656600000000000000000000000000000000600a86061a8153600a858161220157612200613af6565b5b049450600085036121b8575b819350505050919050565b60006002600083815260200190815260200160002060009054906101000a900473ffffffffffffffffffffffffffffffffffffffff169050919050565b808061228e5750600073ffffffffffffffffffffffffffffffffffffffff168273ffffffffffffffffffffffffffffffffffffffff1614155b156123c257600061229e84611a70565b9050600073ffffffffffffffffffffffffffffffffffffffff168373ffffffffffffffffffffffffffffffffffffffff161415801561230957508273ffffffffffffffffffffffffffffffffffffffff168173ffffffffffffffffffffffffffffffffffffffff1614155b801561231c575061231a8184611972565b155b1561235e57826040517fa9fbf51f0000000000000000000000000000000000000000000000000000000081526004016123559190612a7f565b60405180910390fd5b81156123c057838573ffffffffffffffffffffffffffffffffffffffff168273ffffffffffffffffffffffffffffffffffffffff167f8c5be1e5ebec7d5bd14f71427d1e84f3dd0314c0f7b2291e5b200ac8c7c3b92560405160405180910390a45b505b836004600085815260200190815260200160002060006101000a81548173ffffffffffffffffffffffffffffffffffffffff021916908373ffffffffffffffffffffffffffffffffffffffff16021790555050505050565b61242583838361264d565b6124d957600073ffffffffffffffffffffffffffffffffffffffff168373ffffffffffffffffffffffffffffffffffffffff160361249a57806040517f7e2732890000000000000000000000000000000000000000000000000000000081526004016124919190612b15565b60405180910390fd5b81816040517f177e802f0000000000000000000000000000000000000000000000000000000081526004016124d0929190613b25565b60405180910390fd5b505050565b6124e8838361270e565b6124f56000848484611f7c565b505050565b600080600090507a184f03e93ff9f4daa797ed6e38ed64bf6a1f0100000000000000008310612558577a184f03e93ff9f4daa797ed6e38ed64bf6a1f010000000000000000838161254e5761254d613af6565b5b0492506040810190505b6d04ee2d6d415b85acef81000000008310612595576d04ee2d6d415b85acef8100000000838161258b5761258a613af6565b5b0492506020810190505b662386f26fc1000083106125c457662386f26fc1000083816125ba576125b9613af6565b5b0492506010810190505b6305f5e10083106125ed576305f5e10083816125e3576125e2613af6565b5b0492506008810190505b612710831061261257612710838161260857612607613af6565b5b0492506004810190505b60648310612635576064838161262b5761262a613af6565b5b0492506002810190505b600a8310612644576001810190505b80915050919050565b60008073ffffffffffffffffffffffffffffffffffffffff168373ffffffffffffffffffffffffffffffffffffffff161415801561270557508273ffffffffffffffffffffffffffffffffffffffff168473ffffffffffffffffffffffffffffffffffffffff1614806126c657506126c58484611972565b5b8061270457508273ffffffffffffffffffffffffffffffffffffffff166126ec83611af8565b73ffffffffffffffffffffffffffffffffffffffff16145b5b90509392505050565b600073ffffffffffffffffffffffffffffffffffffffff168273ffffffffffffffffffffffffffffffffffffffff16036127805760006040517f64a0ae920000000000000000000000000000000000000000000000000000000081526004016127779190612a7f565b60405180910390fd5b600061278e83836000611b4f565b9050600073ffffffffffffffffffffffffffffffffffffffff168173ffffffffffffffffffffffffffffffffffffffff16146128025760006040517f73c6ac6e0000000000000000000000000000000000000000000000000000000081526004016127f99190612a7f565b60405180910390fd5b505050565b604051806101400160405280600081526020016060815260200160008152602001600081526020016000815260200160608152602001606081526020016060815260200160608152602001606081525090565b6000604051905090565b600080fd5b600080fd5b60007fffffffff0000000000000000000000000000000000000000000000000000000082169050919050565b6128a38161286e565b81146128ae57600080fd5b50565b6000813590506128c08161289a565b92915050565b6000602082840312156128dc576128db612864565b5b60006128ea848285016128b1565b91505092915050565b60008115159050919050565b612908816128f3565b82525050565b600060208201905061292360008301846128ff565b92915050565b600081519050919050565b600082825260208201905092915050565b60005b83811015612963578082015181840152602081019050612948565b60008484015250505050565b6000601f19601f8301169050919050565b600061298b82612929565b6129958185612934565b93506129a5818560208601612945565b6129ae8161296f565b840191505092915050565b600060208201905081810360008301526129d38184612980565b905092915050565b6000819050919050565b6129ee816129db565b81146129f957600080fd5b50565b600081359050612a0b816129e5565b92915050565b600060208284031215612a2757612a26612864565b5b6000612a35848285016129fc565b91505092915050565b600073ffffffffffffffffffffffffffffffffffffffff82169050919050565b6000612a6982612a3e565b9050919050565b612a7981612a5e565b82525050565b6000602082019050612a946000830184612a70565b92915050565b612aa381612a5e565b8114612aae57600080fd5b50565b600081359050612ac081612a9a565b92915050565b60008060408385031215612add57612adc612864565b5b6000612aeb85828601612ab1565b9250506020612afc858286016129fc565b9150509250929050565b612b0f816129db565b82525050565b6000602082019050612b2a6000830184612b06565b92915050565b600080600060608486031215612b4957612b48612864565b5b6000612b5786828701612ab1565b9350506020612b6886828701612ab1565b9250506040612b79868287016129fc565b9150509250925092565b600060208284031215612b9957612b98612864565b5b6000612ba784828501612ab1565b91505092915050565b612bb9816129db565b82525050565b600082825260208201905092915050565b6000612bdb82612929565b612be58185612bbf565b9350612bf5818560208601612945565b612bfe8161296f565b840191505092915050565b600061014083016000830151612c226000860182612bb0565b5060208301518482036020860152612c3a8282612bd0565b9150506040830151612c4f6040860182612bb0565b506060830151612c626060860182612bb0565b506080830151612c756080860182612bb0565b5060a083015184820360a0860152612c8d8282612bd0565b91505060c083015184820360c0860152612ca78282612bd0565b91505060e083015184820360e0860152612cc18282612bd0565b915050610100830151848203610100860152612cdd8282612bd0565b915050610120830151848203610120860152612cf98282612bd0565b9150508091505092915050565b60006020820190508181036000830152612d208184612c09565b905092915050565b60008060408385031215612d3f57612d3e612864565b5b6000612d4d858286016129fc565b9250506020612d5e85828601612ab1565b9150509250929050565b600061014082019050612d7e600083018d612b06565b8181036020830152612d90818c612980565b9050612d9f604083018b612b06565b612dac606083018a612b06565b612db96080830189612b06565b81810360a0830152612dcb8188612980565b905081810360c0830152612ddf8187612980565b905081810360e0830152612df38186612980565b9050818103610100830152612e088185612980565b9050818103610120830152612e1d8184612980565b90509b9a5050505050505050505050565b612e37816128f3565b8114612e4257600080fd5b50565b600081359050612e5481612e2e565b92915050565b60008060408385031215612e7157612e70612864565b5b6000612e7f85828601612ab1565b9250506020612e9085828601612e45565b9150509250929050565b600080fd5b600080fd5b7f4e487b7100000000000000000000000000000000000000000000000000000000600052604160045260246000fd5b612edc8261296f565b810181811067ffffffffffffffff82111715612efb57612efa612ea4565b5b80604052505050565b6000612f0e61285a565b9050612f1a8282612ed3565b919050565b600067ffffffffffffffff821115612f3a57612f39612ea4565b5b612f438261296f565b9050602081019050919050565b82818337600083830152505050565b6000612f72612f6d84612f1f565b612f04565b905082815260208101848484011115612f8e57612f8d612e9f565b5b612f99848285612f50565b509392505050565b600082601f830112612fb657612fb5612e9a565b5b8135612fc6848260208601612f5f565b91505092915050565b60008060008060808587031215612fe957612fe8612864565b5b6000612ff787828801612ab1565b945050602061300887828801612ab1565b9350506040613019878288016129fc565b925050606085013567ffffffffffffffff81111561303a57613039612869565b5b61304687828801612fa1565b91505092959194509250565b600067ffffffffffffffff82111561306d5761306c612ea4565b5b6130768261296f565b9050602081019050919050565b600061309661309184613052565b612f04565b9050828152602081018484840111156130b2576130b1612e9f565b5b6130bd848285612f50565b509392505050565b600082601f8301126130da576130d9612e9a565b5b81356130ea848260208601613083565b91505092915050565b60008060008060008060008060006101208a8c03121561311657613115612864565b5b60008a013567ffffffffffffffff81111561313457613133612869565b5b6131408c828d016130c5565b99505060206131518c828d016129fc565b98505060406131628c828d016129fc565b97505060606131738c828d016129fc565b96505060808a013567ffffffffffffffff81111561319457613193612869565b5b6131a08c828d016130c5565b95505060a08a013567ffffffffffffffff8111156131c1576131c0612869565b5b6131cd8c828d016130c5565b94505060c08a013567ffffffffffffffff8111156131ee576131ed612869565b5b6131fa8c828d016130c5565b93505060e08a013567ffffffffffffffff81111561321b5761321a612869565b5b6132278c828d016130c5565b9250506101008a013567ffffffffffffffff81111561324957613248612869565b5b6132558c828d016130c5565b9150509295985092959850929598565b6000806040838503121561327c5761327b612864565b5b600061328a85828601612ab1565b925050602061329b85828601612ab1565b9150509250929050565b7f4e487b7100000000000000000000000000000000000000000000000000000000600052602260045260246000fd5b600060028204905060018216806132ec57607f821691505b6020821081036132ff576132fe6132a5565b5b50919050565b600060608201905061331a6000830186612a70565b6133276020830185612b06565b6133346040830184612a70565b949350505050565b7f4f6e6c79206f776e65722063616e2063616c6c20746869732066756e6374696f60008201527f6e00000000000000000000000000000000000000000000000000000000000000602082015250565b6000613398602183612934565b91506133a38261333c565b604082019050919050565b600060208201905081810360008301526133c78161338b565b9050919050565b600081905092915050565b50565b60006133e96000836133ce565b91506133f4826133d9565b600082019050919050565b600061340a826133dc565b9150819050919050565b7f4576656e742049442053616c6168000000000000000000000000000000000000600082015250565b600061344a600e83612934565b915061345582613414565b602082019050919050565b600060208201905081810360008301526134798161343d565b9050919050565b7f4576656e7420746964616b206164610000000000000000000000000000000000600082015250565b60006134b6600f83612934565b91506134c182613480565b602082019050919050565b600060208201905081810360008301526134e5816134a9565b9050919050565b7f416e64612062656c756d206d656d62656c692074696b657420756e74756b206160008201527f6361726120696e69000000000000000000000000000000000000000000000000602082015250565b6000613548602883612934565b9150613553826134ec565b604082019050919050565b600060208201905081810360008301526135778161353b565b9050919050565b7f4e487b7100000000000000000000000000000000000000000000000000000000600052601160045260246000fd5b60006135b8826129db565b91506135c3836129db565b92508282019050808211156135db576135da61357e565b5b92915050565b60006135ec826129db565b91507fffffffffffffffffffffffffffffffffffffffffffffffffffffffffffffffff820361361e5761361d61357e565b5b600182019050919050565b7f50656d6261796172616e20746964616b206d656e63756b757069000000000000600082015250565b600061365f601a83612934565b915061366a82613629565b602082019050919050565b6000602082019050818103600083015261368e81613652565b9050919050565b7f54696b6574207375646168206861626973000000000000000000000000000000600082015250565b60006136cb601183612934565b91506136d682613695565b602082019050919050565b600060208201905081810360008301526136fa816136be565b9050919050565b600061370c826129db565b9150613717836129db565b925082820390508181111561372f5761372e61357e565b5b92915050565b60008190508160005260206000209050919050565b60006020601f8301049050919050565b600082821b905092915050565b6000600883026137977fffffffffffffffffffffffffffffffffffffffffffffffffffffffffffffffff8261375a565b6137a1868361375a565b95508019841693508086168417925050509392505050565b6000819050919050565b60006137de6137d96137d4846129db565b6137b9565b6129db565b9050919050565b6000819050919050565b6137f8836137c3565b61380c613804826137e5565b848454613767565b825550505050565b600090565b613821613814565b61382c8184846137ef565b505050565b5b8181101561385057613845600082613819565b600181019050613832565b5050565b601f8211156138955761386681613735565b61386f8461374a565b8101602085101561387e578190505b61389261388a8561374a565b830182613831565b50505b505050565b600082821c905092915050565b60006138b86000198460080261389a565b1980831691505092915050565b60006138d183836138a7565b9150826002028217905092915050565b6138ea82612929565b67ffffffffffffffff81111561390357613902612ea4565b5b61390d82546132d4565b613918828285613854565b600060209050601f83116001811461394b5760008415613939578287015190505b61394385826138c5565b8655506139ab565b601f19841661395986613735565b60005b828110156139815784890151825560018201915060208501945060208101905061395c565b8683101561399e578489015161399a601f8916826138a7565b8355505b6001600288020188555050505b505050505050565b600081905092915050565b60006139c982612929565b6139d381856139b3565b93506139e3818560208601612945565b80840191505092915050565b60006139fb82856139be565b9150613a0782846139be565b91508190509392505050565b600081519050919050565b600082825260208201905092915050565b6000613a3a82613a13565b613a448185613a1e565b9350613a54818560208601612945565b613a5d8161296f565b840191505092915050565b6000608082019050613a7d6000830187612a70565b613a8a6020830186612a70565b613a976040830185612b06565b8181036060830152613aa98184613a2f565b905095945050505050565b600081519050613ac38161289a565b92915050565b600060208284031215613adf57613ade612864565b5b6000613aed84828501613ab4565b91505092915050565b7f4e487b7100000000000000000000000000000000000000000000000000000000600052601260045260246000fd5b6000604082019050613b3a6000830185612a70565b613b476020830184612b06565b939250505056fea26469706673582212200c108a3741398372e3fe9dd03ce1531f74c91304b501fa96c35e2047da13be1264736f6c63430008140033",
  "linkReferences": {},
  "deployedLinkReferences": {}
}